{
  "address": "0x8f8863423c13844c042Ef85708607D094a05B2bE",
  "abi": [
    {
      "inputs": [],
      "stateMutability": "nonpayable",
      "type": "constructor"
    },
    {
      "inputs": [
        {
          "internalType": "address",
          "name": "spender",
          "type": "address"
        },
        {
          "internalType": "uint256",
          "name": "allowance",
          "type": "uint256"
        },
        {
          "internalType": "uint256",
          "name": "needed",
          "type": "uint256"
        }
      ],
      "name": "ERC20InsufficientAllowance",
      "type": "error"
    },
    {
      "inputs": [
        {
          "internalType": "address",
          "name": "sender",
          "type": "address"
        },
        {
          "internalType": "uint256",
          "name": "balance",
          "type": "uint256"
        },
        {
          "internalType": "uint256",
          "name": "needed",
          "type": "uint256"
        }
      ],
      "name": "ERC20InsufficientBalance",
      "type": "error"
    },
    {
      "inputs": [
        {
          "internalType": "address",
          "name": "approver",
          "type": "address"
        }
      ],
      "name": "ERC20InvalidApprover",
      "type": "error"
    },
    {
      "inputs": [
        {
          "internalType": "address",
          "name": "receiver",
          "type": "address"
        }
      ],
      "name": "ERC20InvalidReceiver",
      "type": "error"
    },
    {
      "inputs": [
        {
          "internalType": "address",
          "name": "sender",
          "type": "address"
        }
      ],
      "name": "ERC20InvalidSender",
      "type": "error"
    },
    {
      "inputs": [
        {
          "internalType": "address",
          "name": "spender",
          "type": "address"
        }
      ],
      "name": "ERC20InvalidSpender",
      "type": "error"
    },
    {
      "inputs": [
        {
          "internalType": "address",
          "name": "owner",
          "type": "address"
        }
      ],
      "name": "OwnableInvalidOwner",
      "type": "error"
    },
    {
      "inputs": [
        {
          "internalType": "address",
          "name": "account",
          "type": "address"
        }
      ],
      "name": "OwnableUnauthorizedAccount",
      "type": "error"
    },
    {
      "anonymous": false,
      "inputs": [
        {
          "indexed": true,
          "internalType": "address",
          "name": "owner",
          "type": "address"
        },
        {
          "indexed": true,
          "internalType": "address",
          "name": "spender",
          "type": "address"
        },
        {
          "indexed": false,
          "internalType": "uint256",
          "name": "value",
          "type": "uint256"
        }
      ],
      "name": "Approval",
      "type": "event"
    },
    {
      "anonymous": false,
      "inputs": [
        {
          "indexed": true,
          "internalType": "address",
          "name": "to",
          "type": "address"
        },
        {
          "indexed": false,
          "internalType": "uint256",
          "name": "amount",
          "type": "uint256"
        }
      ],
      "name": "EmergencyMint",
      "type": "event"
    },
    {
      "anonymous": false,
      "inputs": [
        {
          "indexed": true,
          "internalType": "address",
          "name": "minter",
          "type": "address"
        },
        {
          "indexed": false,
          "internalType": "uint256",
          "name": "dailyLimit",
          "type": "uint256"
        }
      ],
      "name": "MinterAdded",
      "type": "event"
    },
    {
      "anonymous": false,
      "inputs": [
        {
          "indexed": true,
          "internalType": "address",
          "name": "minter",
          "type": "address"
        }
      ],
      "name": "MinterRemoved",
      "type": "event"
    },
    {
      "anonymous": false,
      "inputs": [
        {
          "indexed": true,
          "internalType": "address",
          "name": "previousOwner",
          "type": "address"
        },
        {
          "indexed": true,
          "internalType": "address",
          "name": "newOwner",
          "type": "address"
        }
      ],
      "name": "OwnershipTransferred",
      "type": "event"
    },
    {
      "anonymous": false,
      "inputs": [
        {
          "indexed": true,
          "internalType": "address",
          "name": "from",
          "type": "address"
        },
        {
          "indexed": true,
          "internalType": "address",
          "name": "to",
          "type": "address"
        },
        {
          "indexed": false,
          "internalType": "uint256",
          "name": "value",
          "type": "uint256"
        }
      ],
      "name": "Transfer",
      "type": "event"
    },
    {
      "inputs": [
        {
          "internalType": "address",
          "name": "minter",
          "type": "address"
        },
        {
          "internalType": "uint256",
          "name": "limit",
          "type": "uint256"
        }
      ],
      "name": "addMinter",
      "outputs": [],
      "stateMutability": "nonpayable",
      "type": "function"
    },
    {
      "inputs": [
        {
          "internalType": "address",
          "name": "owner",
          "type": "address"
        },
        {
          "internalType": "address",
          "name": "spender",
          "type": "address"
        }
      ],
      "name": "allowance",
      "outputs": [
        {
          "internalType": "uint256",
          "name": "",
          "type": "uint256"
        }
      ],
      "stateMutability": "view",
      "type": "function"
    },
    {
      "inputs": [
        {
          "internalType": "address",
          "name": "spender",
          "type": "address"
        },
        {
          "internalType": "uint256",
          "name": "value",
          "type": "uint256"
        }
      ],
      "name": "approve",
      "outputs": [
        {
          "internalType": "bool",
          "name": "",
          "type": "bool"
        }
      ],
      "stateMutability": "nonpayable",
      "type": "function"
    },
    {
      "inputs": [
        {
          "internalType": "address",
          "name": "account",
          "type": "address"
        }
      ],
      "name": "balanceOf",
      "outputs": [
        {
          "internalType": "uint256",
          "name": "",
          "type": "uint256"
        }
      ],
      "stateMutability": "view",
      "type": "function"
    },
    {
      "inputs": [
        {
          "internalType": "uint256",
          "name": "amount",
          "type": "uint256"
        }
      ],
      "name": "burn",
      "outputs": [],
      "stateMutability": "nonpayable",
      "type": "function"
    },
    {
      "inputs": [
        {
          "internalType": "address",
          "name": "",
          "type": "address"
        }
      ],
      "name": "dailyMintLimit",
      "outputs": [
        {
          "internalType": "uint256",
          "name": "",
          "type": "uint256"
        }
      ],
      "stateMutability": "view",
      "type": "function"
    },
    {
      "inputs": [
        {
          "internalType": "address",
          "name": "",
          "type": "address"
        }
      ],
      "name": "dailyMinted",
      "outputs": [
        {
          "internalType": "uint256",
          "name": "",
          "type": "uint256"
        }
      ],
      "stateMutability": "view",
      "type": "function"
    },
    {
      "inputs": [],
      "name": "decimals",
      "outputs": [
        {
          "internalType": "uint8",
          "name": "",
          "type": "uint8"
        }
      ],
      "stateMutability": "pure",
      "type": "function"
    },
    {
      "inputs": [
        {
          "internalType": "address",
          "name": "to",
          "type": "address"
        },
        {
          "internalType": "uint256",
          "name": "amount",
          "type": "uint256"
        }
      ],
      "name": "emergencyMint",
      "outputs": [],
      "stateMutability": "nonpayable",
      "type": "function"
    },
    {
      "inputs": [
        {
          "internalType": "address",
          "name": "account",
          "type": "address"
        }
      ],
      "name": "getFormattedBalance",
      "outputs": [
        {
          "internalType": "uint256",
          "name": "",
          "type": "uint256"
        }
      ],
      "stateMutability": "view",
      "type": "function"
    },
    {
      "inputs": [
        {
          "internalType": "address",
          "name": "",
          "type": "address"
        }
      ],
      "name": "lastMintDay",
      "outputs": [
        {
          "internalType": "uint256",
          "name": "",
          "type": "uint256"
        }
      ],
      "stateMutability": "view",
      "type": "function"
    },
    {
      "inputs": [
        {
          "internalType": "address",
          "name": "to",
          "type": "address"
        },
        {
          "internalType": "uint256",
          "name": "amount",
          "type": "uint256"
        }
      ],
      "name": "mint",
      "outputs": [],
      "stateMutability": "nonpayable",
      "type": "function"
    },
    {
      "inputs": [
        {
          "internalType": "address",
          "name": "",
          "type": "address"
        }
      ],
      "name": "minters",
      "outputs": [
        {
          "internalType": "bool",
          "name": "",
          "type": "bool"
        }
      ],
      "stateMutability": "view",
      "type": "function"
    },
    {
      "inputs": [],
      "name": "name",
      "outputs": [
        {
          "internalType": "string",
          "name": "",
          "type": "string"
        }
      ],
      "stateMutability": "view",
      "type": "function"
    },
    {
      "inputs": [],
      "name": "owner",
      "outputs": [
        {
          "internalType": "address",
          "name": "",
          "type": "address"
        }
      ],
      "stateMutability": "view",
      "type": "function"
    },
    {
      "inputs": [
        {
          "internalType": "address",
          "name": "minter",
          "type": "address"
        }
      ],
      "name": "removeMinter",
      "outputs": [],
      "stateMutability": "nonpayable",
      "type": "function"
    },
    {
      "inputs": [],
      "name": "renounceOwnership",
      "outputs": [],
      "stateMutability": "nonpayable",
      "type": "function"
    },
    {
      "inputs": [],
      "name": "symbol",
      "outputs": [
        {
          "internalType": "string",
          "name": "",
          "type": "string"
        }
      ],
      "stateMutability": "view",
      "type": "function"
    },
    {
      "inputs": [],
      "name": "totalSupply",
      "outputs": [
        {
          "internalType": "uint256",
          "name": "",
          "type": "uint256"
        }
      ],
      "stateMutability": "view",
      "type": "function"
    },
    {
      "inputs": [
        {
          "internalType": "address",
          "name": "to",
          "type": "address"
        },
        {
          "internalType": "uint256",
          "name": "value",
          "type": "uint256"
        }
      ],
      "name": "transfer",
      "outputs": [
        {
          "internalType": "bool",
          "name": "",
          "type": "bool"
        }
      ],
      "stateMutability": "nonpayable",
      "type": "function"
    },
    {
      "inputs": [
        {
          "internalType": "address",
          "name": "from",
          "type": "address"
        },
        {
          "internalType": "address",
          "name": "to",
          "type": "address"
        },
        {
          "internalType": "uint256",
          "name": "value",
          "type": "uint256"
        }
      ],
      "name": "transferFrom",
      "outputs": [
        {
          "internalType": "bool",
          "name": "",
          "type": "bool"
        }
      ],
      "stateMutability": "nonpayable",
      "type": "function"
    },
    {
      "inputs": [
        {
          "internalType": "address",
          "name": "newOwner",
          "type": "address"
        }
      ],
      "name": "transferOwnership",
      "outputs": [],
      "stateMutability": "nonpayable",
      "type": "function"
    }
  ],
  "transactionHash": "0x7ca4220e7e5719dde95681b33b3e45e0f3cb85a85f21238d0ca248d9408ef74c",
  "args": [],
  "numDeployments": 1,
  "solcInputHash": "ae6eb21eb1f9879ea2d05131cef739be",
  "bytecode": "0x60806040523480156200001157600080fd5b50336040518060400160405280600a81526020016914185e54185b081554d160b21b8152506040518060400160405280600581526020016414165554d160da1b81525081600390816200006591906200034b565b5060046200007482826200034b565b5050506001600160a01b038116620000a757604051631e4fbdf760e01b8152600060048201526024015b60405180910390fd5b620000b281620000e1565b50620000db33620000c66006600a6200052c565b620000d590620f424062000544565b62000133565b62000574565b600580546001600160a01b038381166001600160a01b0319831681179093556040519116919082907f8be0079c531659141344cd1fd0a4f28419497f9722a3daafe3b4186f6b6457e090600090a35050565b6001600160a01b0382166200015f5760405163ec442f0560e01b8152600060048201526024016200009e565b6200016d6000838362000171565b5050565b6001600160a01b038316620001a05780600260008282546200019491906200055e565b90915550620002149050565b6001600160a01b03831660009081526020819052604090205481811015620001f55760405163391434e360e21b81526001600160a01b038516600482015260248101829052604481018390526064016200009e565b6001600160a01b03841660009081526020819052604090209082900390555b6001600160a01b038216620002325760028054829003905562000251565b6001600160a01b03821660009081526020819052604090208054820190555b816001600160a01b0316836001600160a01b03167fddf252ad1be2c89b69c2b068fc378daa952ba7f163c4a11628f55a4df523b3ef836040516200029791815260200190565b60405180910390a3505050565b634e487b7160e01b600052604160045260246000fd5b600181811c90821680620002cf57607f821691505b602082108103620002f057634e487b7160e01b600052602260045260246000fd5b50919050565b601f82111562000346576000816000526020600020601f850160051c81016020861015620003215750805b601f850160051c820191505b8181101562000342578281556001016200032d565b5050505b505050565b81516001600160401b03811115620003675762000367620002a4565b6200037f81620003788454620002ba565b84620002f6565b602080601f831160018114620003b757600084156200039e5750858301515b600019600386901b1c1916600185901b17855562000342565b600085815260208120601f198616915b82811015620003e857888601518255948401946001909101908401620003c7565b5085821015620004075787850151600019600388901b60f8161c191681555b5050505050600190811b01905550565b634e487b7160e01b600052601160045260246000fd5b600181815b808511156200046e57816000190482111562000452576200045262000417565b808516156200046057918102915b93841c939080029062000432565b509250929050565b600082620004875750600162000526565b81620004965750600062000526565b8160018114620004af5760028114620004ba57620004da565b600191505062000526565b60ff841115620004ce57620004ce62000417565b50506001821b62000526565b5060208310610133831016604e8410600b8410161715620004ff575081810a62000526565b6200050b83836200042d565b806000190482111562000522576200052262000417565b0290505b92915050565b60006200053d60ff84168362000476565b9392505050565b808202811582820484141762000526576200052662000417565b8082018082111562000526576200052662000417565b610e3980620005846000396000f3fe608060405234801561001057600080fd5b50600436106101425760003560e01c806370a08231116100b857806395d89b411161007c57806395d89b41146102bc5780639d815d2f146102c4578063a9059cbb146102e4578063dd62ed3e146102f7578063f2fde38b14610330578063f46eccc41461034357600080fd5b806370a082311461023d578063715018a614610266578063761248b41461026e5780638a1a30c8146102815780638da5cb5b146102a157600080fd5b80632ddbeb521161010a5780632ddbeb52146101c05780633092afd5146101e0578063313ce567146101f557806340c10f191461020457806342966c681461021757806343785dc91461022a57600080fd5b806305c738d41461014757806306fdde031461016d578063095ea7b31461018257806318160ddd146101a557806323b872dd146101ad575b600080fd5b61015a610155366004610b51565b610366565b6040519081526020015b60405180910390f35b61017561039d565b6040516101649190610b73565b610195610190366004610bc2565b61042f565b6040519015158152602001610164565b60025461015a565b6101956101bb366004610bec565b610447565b61015a6101ce366004610b51565b60096020526000908152604090205481565b6101f36101ee366004610b51565b61046b565b005b60405160068152602001610164565b6101f3610212366004610bc2565b6104bc565b6101f3610225366004610c28565b6105f8565b6101f3610238366004610bc2565b610605565b61015a61024b366004610b51565b6001600160a01b031660009081526020819052604090205490565b6101f361065e565b6101f361027c366004610bc2565b610672565b61015a61028f366004610b51565b60076020526000908152604090205481565b6005546040516001600160a01b039091168152602001610164565b610175610704565b61015a6102d2366004610b51565b60086020526000908152604090205481565b6101956102f2366004610bc2565b610713565b61015a610305366004610c41565b6001600160a01b03918216600090815260016020908152604080832093909416825291909152205490565b6101f361033e366004610b51565b610721565b610195610351366004610b51565b60066020526000908152604090205460ff1681565b60006103746006600a610d6e565b6001600160a01b0383166000908152602081905260409020546103979190610d7d565b92915050565b6060600380546103ac90610d9f565b80601f01602080910402602001604051908101604052809291908181526020018280546103d890610d9f565b80156104255780601f106103fa57610100808354040283529160200191610425565b820191906000526020600020905b81548152906001019060200180831161040857829003601f168201915b5050505050905090565b60003361043d81858561075c565b5060019392505050565b600033610455858285610769565b6104608585856107e8565b506001949350505050565b610473610847565b6001600160a01b038116600081815260066020526040808220805460ff19169055517fe94479a9f7e1952cc78f2d6baab678adc1b772d936c6583def489e524cb666929190a250565b3360009081526006602052604090205460ff1661050f5760405162461bcd60e51b815260206004820152600c60248201526b2737ba10309036b4b73a32b960a11b60448201526064015b60405180910390fd5b600061051e6201518042610d7d565b3360009081526009602052604090205490915081111561055857336000908152600860209081526040808320839055600990915290208190555b3360009081526007602090815260408083205460089092529091205461057f908490610dd9565b11156105c45760405162461bcd60e51b815260206004820152601460248201527311185a5b1e481b1a5b5a5d08195e18d95959195960621b6044820152606401610506565b33600090815260086020526040812080548492906105e3908490610dd9565b909155506105f390508383610874565b505050565b61060233826108ae565b50565b61060d610847565b6106178282610874565b816001600160a01b03167f08adf4618708f09bfc89231b82dc6de1b34138911aa925a6f5e97ac55bec03a68260405161065291815260200190565b60405180910390a25050565b610666610847565b61067060006108e4565b565b61067a610847565b6001600160a01b0382166000908152600660208190526040909120805460ff191660011790556106ab90600a610d6e565b6106b59082610dec565b6001600160a01b038316600081815260076020526040908190209290925590517f96c1d7caf640fe379bdec5a79548e10ba60accd05456f6505c11bc85a3a7b59d906106529084815260200190565b6060600480546103ac90610d9f565b60003361043d8185856107e8565b610729610847565b6001600160a01b03811661075357604051631e4fbdf760e01b815260006004820152602401610506565b610602816108e4565b6105f38383836001610936565b6001600160a01b038381166000908152600160209081526040808320938616835292905220546000198110156107e257818110156107d357604051637dc7a0d960e11b81526001600160a01b03841660048201526024810182905260448101839052606401610506565b6107e284848484036000610936565b50505050565b6001600160a01b03831661081257604051634b637e8f60e11b815260006004820152602401610506565b6001600160a01b03821661083c5760405163ec442f0560e01b815260006004820152602401610506565b6105f3838383610a0b565b6005546001600160a01b031633146106705760405163118cdaa760e01b8152336004820152602401610506565b6001600160a01b03821661089e5760405163ec442f0560e01b815260006004820152602401610506565b6108aa60008383610a0b565b5050565b6001600160a01b0382166108d857604051634b637e8f60e11b815260006004820152602401610506565b6108aa82600083610a0b565b600580546001600160a01b038381166001600160a01b0319831681179093556040519116919082907f8be0079c531659141344cd1fd0a4f28419497f9722a3daafe3b4186f6b6457e090600090a35050565b6001600160a01b0384166109605760405163e602df0560e01b815260006004820152602401610506565b6001600160a01b03831661098a57604051634a1406b160e11b815260006004820152602401610506565b6001600160a01b03808516600090815260016020908152604080832093871683529290522082905580156107e257826001600160a01b0316846001600160a01b03167f8c5be1e5ebec7d5bd14f71427d1e84f3dd0314c0f7b2291e5b200ac8c7c3b925846040516109fd91815260200190565b60405180910390a350505050565b6001600160a01b038316610a36578060026000828254610a2b9190610dd9565b90915550610aa89050565b6001600160a01b03831660009081526020819052604090205481811015610a895760405163391434e360e21b81526001600160a01b03851660048201526024810182905260448101839052606401610506565b6001600160a01b03841660009081526020819052604090209082900390555b6001600160a01b038216610ac457600280548290039055610ae3565b6001600160a01b03821660009081526020819052604090208054820190555b816001600160a01b0316836001600160a01b03167fddf252ad1be2c89b69c2b068fc378daa952ba7f163c4a11628f55a4df523b3ef83604051610b2891815260200190565b60405180910390a3505050565b80356001600160a01b0381168114610b4c57600080fd5b919050565b600060208284031215610b6357600080fd5b610b6c82610b35565b9392505050565b60006020808352835180602085015260005b81811015610ba157858101830151858201604001528201610b85565b506000604082860101526040601f19601f8301168501019250505092915050565b60008060408385031215610bd557600080fd5b610bde83610b35565b946020939093013593505050565b600080600060608486031215610c0157600080fd5b610c0a84610b35565b9250610c1860208501610b35565b9150604084013590509250925092565b600060208284031215610c3a57600080fd5b5035919050565b60008060408385031215610c5457600080fd5b610c5d83610b35565b9150610c6b60208401610b35565b90509250929050565b634e487b7160e01b600052601160045260246000fd5b600181815b80851115610cc5578160001904821115610cab57610cab610c74565b80851615610cb857918102915b93841c9390800290610c8f565b509250929050565b600082610cdc57506001610397565b81610ce957506000610397565b8160018114610cff5760028114610d0957610d25565b6001915050610397565b60ff841115610d1a57610d1a610c74565b50506001821b610397565b5060208310610133831016604e8410600b8410161715610d48575081810a610397565b610d528383610c8a565b8060001904821115610d6657610d66610c74565b029392505050565b6000610b6c60ff841683610ccd565b600082610d9a57634e487b7160e01b600052601260045260246000fd5b500490565b600181811c90821680610db357607f821691505b602082108103610dd357634e487b7160e01b600052602260045260246000fd5b50919050565b8082018082111561039757610397610c74565b808202811582820484141761039757610397610c7456fea2646970667358221220660130ee5ce1c314a363ffbefc4385437a5a2ff95a16082f2d2e368889a13c2464736f6c63430008160033",
  "devdoc": {
    "details": "Implements standard ERC20 with minting capability for testing",
    "errors": {
      "ERC20InsufficientAllowance(address,uint256,uint256)": [
        {
          "details": "Indicates a failure with the `spender`s `allowance`. Used in transfers.",
          "params": {
            "allowance": "Amount of tokens a `spender` is allowed to operate with.",
            "needed": "Minimum amount required to perform a transfer.",
            "spender": "Address that may be allowed to operate on tokens without being their owner."
          }
        }
      ],
      "ERC20InsufficientBalance(address,uint256,uint256)": [
        {
          "details": "Indicates an error related to the current `balance` of a `sender`. Used in transfers.",
          "params": {
            "balance": "Current balance for the interacting account.",
            "needed": "Minimum amount required to perform a transfer.",
            "sender": "Address whose tokens are being transferred."
          }
        }
      ],
      "ERC20InvalidApprover(address)": [
        {
          "details": "Indicates a failure with the `approver` of a token to be approved. Used in approvals.",
          "params": {
            "approver": "Address initiating an approval operation."
          }
        }
      ],
      "ERC20InvalidReceiver(address)": [
        {
          "details": "Indicates a failure with the token `receiver`. Used in transfers.",
          "params": {
            "receiver": "Address to which tokens are being transferred."
          }
        }
      ],
      "ERC20InvalidSender(address)": [
        {
          "details": "Indicates a failure with the token `sender`. Used in transfers.",
          "params": {
            "sender": "Address whose tokens are being transferred."
          }
        }
      ],
      "ERC20InvalidSpender(address)": [
        {
          "details": "Indicates a failure with the `spender` to be approved. Used in approvals.",
          "params": {
            "spender": "Address that may be allowed to operate on tokens without being their owner."
          }
        }
      ],
      "OwnableInvalidOwner(address)": [
        {
          "details": "The owner is not a valid owner account. (eg. `address(0)`)"
        }
      ],
      "OwnableUnauthorizedAccount(address)": [
        {
          "details": "The caller account is not authorized to perform an operation."
        }
      ]
    },
    "events": {
      "Approval(address,address,uint256)": {
        "details": "Emitted when the allowance of a `spender` for an `owner` is set by a call to {approve}. `value` is the new allowance."
      },
      "Transfer(address,address,uint256)": {
        "details": "Emitted when `value` tokens are moved from one account (`from`) to another (`to`). Note that `value` may be zero."
      }
    },
    "kind": "dev",
    "methods": {
      "addMinter(address,uint256)": {
        "params": {
          "limit": "Daily minting limit in PYUSD",
          "minter": "Address to grant minting permission"
        }
      },
      "allowance(address,address)": {
        "details": "Returns the remaining number of tokens that `spender` will be allowed to spend on behalf of `owner` through {transferFrom}. This is zero by default. This value changes when {approve} or {transferFrom} are called."
      },
      "approve(address,uint256)": {
        "details": "See {IERC20-approve}. NOTE: If `value` is the maximum `uint256`, the allowance is not updated on `transferFrom`. This is semantically equivalent to an infinite approval. Requirements: - `spender` cannot be the zero address."
      },
      "balanceOf(address)": {
        "details": "Returns the value of tokens owned by `account`."
      },
      "burn(uint256)": {
        "params": {
          "amount": "Amount to burn"
        }
      },
      "decimals()": {
        "details": "Returns the number of decimals used to get its user representation. For example, if `decimals` equals `2`, a balance of `505` tokens should be displayed to a user as `5.05` (`505 / 10 ** 2`). Tokens usually opt for a value of 18, imitating the relationship between Ether and Wei. This is the default value returned by this function, unless it's overridden. NOTE: This information is only used for _display_ purposes: it in no way affects any of the arithmetic of the contract, including {IERC20-balanceOf} and {IERC20-transfer}."
      },
      "emergencyMint(address,uint256)": {
        "params": {
          "amount": "Amount to mint",
          "to": "Recipient address"
        }
      },
      "getFormattedBalance(address)": {
        "params": {
          "account": "Address to check"
        },
        "returns": {
          "_0": "balance Balance without decimals"
        }
      },
      "mint(address,uint256)": {
        "params": {
          "amount": "Amount to mint (with decimals)",
          "to": "Recipient address"
        }
      },
      "name()": {
        "details": "Returns the name of the token."
      },
      "owner()": {
        "details": "Returns the address of the current owner."
      },
      "removeMinter(address)": {
        "params": {
          "minter": "Address to revoke minting permission"
        }
      },
      "renounceOwnership()": {
        "details": "Leaves the contract without owner. It will not be possible to call `onlyOwner` functions. Can only be called by the current owner. NOTE: Renouncing ownership will leave the contract without an owner, thereby disabling any functionality that is only available to the owner."
      },
      "symbol()": {
        "details": "Returns the symbol of the token, usually a shorter version of the name."
      },
      "totalSupply()": {
        "details": "Returns the value of tokens in existence."
      },
      "transfer(address,uint256)": {
        "details": "See {IERC20-transfer}. Requirements: - `to` cannot be the zero address. - the caller must have a balance of at least `value`."
      },
      "transferFrom(address,address,uint256)": {
        "details": "See {IERC20-transferFrom}. Skips emitting an {Approval} event indicating an allowance update. This is not required by the ERC. See {xref-ERC20-_approve-address-address-uint256-bool-}[_approve]. NOTE: Does not update the allowance if the current allowance is the maximum `uint256`. Requirements: - `from` and `to` cannot be the zero address. - `from` must have a balance of at least `value`. - the caller must have allowance for ``from``'s tokens of at least `value`."
      },
      "transferOwnership(address)": {
        "details": "Transfers ownership of the contract to a new account (`newOwner`). Can only be called by the current owner."
      }
    },
    "title": "MockPYUSD",
    "version": 1
  },
  "userdoc": {
    "kind": "user",
    "methods": {
      "addMinter(address,uint256)": {
        "notice": "Add a minter with daily limit"
      },
      "burn(uint256)": {
        "notice": "Burn PYUSD tokens"
      },
      "emergencyMint(address,uint256)": {
        "notice": "Emergency mint by owner (for testing)"
      },
      "getFormattedBalance(address)": {
        "notice": "Get formatted balance (for UI display)"
      },
      "mint(address,uint256)": {
        "notice": "Mint PYUSD within daily limit"
      },
      "removeMinter(address)": {
        "notice": "Remove minter permission"
      }
    },
    "notice": "Mock PayPal USD stablecoin for testing x402 payments",
    "version": 1
  },
  "storageLayout": {
    "storage": [
      {
        "astId": 397,
        "contract": "contracts/MockPYUSD.sol:MockPYUSD",
        "label": "_balances",
        "offset": 0,
        "slot": "0",
        "type": "t_mapping(t_address,t_uint256)"
      },
      {
        "astId": 403,
        "contract": "contracts/MockPYUSD.sol:MockPYUSD",
        "label": "_allowances",
        "offset": 0,
        "slot": "1",
        "type": "t_mapping(t_address,t_mapping(t_address,t_uint256))"
      },
      {
        "astId": 405,
        "contract": "contracts/MockPYUSD.sol:MockPYUSD",
        "label": "_totalSupply",
        "offset": 0,
        "slot": "2",
        "type": "t_uint256"
      },
      {
        "astId": 407,
        "contract": "contracts/MockPYUSD.sol:MockPYUSD",
        "label": "_name",
        "offset": 0,
        "slot": "3",
        "type": "t_string_storage"
      },
      {
        "astId": 409,
        "contract": "contracts/MockPYUSD.sol:MockPYUSD",
        "label": "_symbol",
        "offset": 0,
        "slot": "4",
        "type": "t_string_storage"
      },
      {
        "astId": 8,
        "contract": "contracts/MockPYUSD.sol:MockPYUSD",
        "label": "_owner",
        "offset": 0,
        "slot": "5",
        "type": "t_address"
      },
      {
        "astId": 3618,
        "contract": "contracts/MockPYUSD.sol:MockPYUSD",
        "label": "minters",
        "offset": 0,
        "slot": "6",
        "type": "t_mapping(t_address,t_bool)"
      },
      {
        "astId": 3622,
        "contract": "contracts/MockPYUSD.sol:MockPYUSD",
        "label": "dailyMintLimit",
        "offset": 0,
        "slot": "7",
        "type": "t_mapping(t_address,t_uint256)"
      },
      {
        "astId": 3626,
        "contract": "contracts/MockPYUSD.sol:MockPYUSD",
        "label": "dailyMinted",
        "offset": 0,
        "slot": "8",
        "type": "t_mapping(t_address,t_uint256)"
      },
      {
        "astId": 3630,
        "contract": "contracts/MockPYUSD.sol:MockPYUSD",
        "label": "lastMintDay",
        "offset": 0,
        "slot": "9",
        "type": "t_mapping(t_address,t_uint256)"
      }
    ],
    "types": {
      "t_address": {
        "encoding": "inplace",
        "label": "address",
        "numberOfBytes": "20"
      },
      "t_bool": {
        "encoding": "inplace",
        "label": "bool",
        "numberOfBytes": "1"
      },
      "t_mapping(t_address,t_bool)": {
        "encoding": "mapping",
        "key": "t_address",
        "label": "mapping(address => bool)",
        "numberOfBytes": "32",
        "value": "t_bool"
      },
      "t_mapping(t_address,t_mapping(t_address,t_uint256))": {
        "encoding": "mapping",
        "key": "t_address",
        "label": "mapping(address => mapping(address => uint256))",
        "numberOfBytes": "32",
        "value": "t_mapping(t_address,t_uint256)"
      },
      "t_mapping(t_address,t_uint256)": {
        "encoding": "mapping",
        "key": "t_address",
        "label": "mapping(address => uint256)",
        "numberOfBytes": "32",
        "value": "t_uint256"
      },
      "t_string_storage": {
        "encoding": "bytes",
        "label": "string",
        "numberOfBytes": "32"
      },
      "t_uint256": {
        "encoding": "inplace",
        "label": "uint256",
        "numberOfBytes": "32"
      }
    }
  }
}