{
  "address": "0x72924Fa9C3dB52fbFC6581979226340B996F3487",
  "abi": [
    {
      "inputs": [
        {
          "internalType": "address",
          "name": "_pyusd",
          "type": "address"
        },
        {
          "internalType": "address",
          "name": "_lzEndpoint",
          "type": "address"
        },
        {
          "internalType": "address",
          "name": "_delegate",
          "type": "address"
        }
      ],
      "stateMutability": "nonpayable",
      "type": "constructor"
    },
    {
      "inputs": [
        {
          "internalType": "address",
          "name": "owner",
          "type": "address"
        }
      ],
      "name": "OwnableInvalidOwner",
      "type": "error"
    },
    {
      "inputs": [
        {
          "internalType": "address",
          "name": "account",
          "type": "address"
        }
      ],
      "name": "OwnableUnauthorizedAccount",
      "type": "error"
    },
    {
      "inputs": [
        {
          "internalType": "address",
          "name": "token",
          "type": "address"
        }
      ],
      "name": "SafeERC20FailedOperation",
      "type": "error"
    },
    {
      "anonymous": false,
      "inputs": [
        {
          "indexed": true,
          "internalType": "uint32",
          "name": "eid",
          "type": "uint32"
        },
        {
          "indexed": false,
          "internalType": "address",
          "name": "tokenAddress",
          "type": "address"
        }
      ],
      "name": "ChainConfigured",
      "type": "event"
    },
    {
      "anonymous": false,
      "inputs": [
        {
          "indexed": true,
          "internalType": "address",
          "name": "sender",
          "type": "address"
        },
        {
          "indexed": true,
          "internalType": "uint32",
          "name": "dstEid",
          "type": "uint32"
        },
        {
          "indexed": true,
          "internalType": "address",
          "name": "recipient",
          "type": "address"
        },
        {
          "indexed": false,
          "internalType": "uint256",
          "name": "amount",
          "type": "uint256"
        }
      ],
      "name": "CrossChainTransferInitiated",
      "type": "event"
    },
    {
      "anonymous": false,
      "inputs": [
        {
          "indexed": true,
          "internalType": "address",
          "name": "previousOwner",
          "type": "address"
        },
        {
          "indexed": true,
          "internalType": "address",
          "name": "newOwner",
          "type": "address"
        }
      ],
      "name": "OwnershipTransferred",
      "type": "event"
    },
    {
      "inputs": [],
      "name": "SHARED_DECIMALS",
      "outputs": [
        {
          "internalType": "uint8",
          "name": "",
          "type": "uint8"
        }
      ],
      "stateMutability": "view",
      "type": "function"
    },
    {
      "inputs": [
        {
          "internalType": "uint32",
          "name": "_eid",
          "type": "uint32"
        },
        {
          "internalType": "address",
          "name": "_tokenAddress",
          "type": "address"
        }
      ],
      "name": "addSupportedChain",
      "outputs": [],
      "stateMutability": "nonpayable",
      "type": "function"
    },
    {
      "inputs": [
        {
          "internalType": "uint32",
          "name": "",
          "type": "uint32"
        }
      ],
      "name": "chainTokenAddresses",
      "outputs": [
        {
          "internalType": "address",
          "name": "",
          "type": "address"
        }
      ],
      "stateMutability": "view",
      "type": "function"
    },
    {
      "inputs": [],
      "name": "lzEndpoint",
      "outputs": [
        {
          "internalType": "address",
          "name": "",
          "type": "address"
        }
      ],
      "stateMutability": "view",
      "type": "function"
    },
    {
      "inputs": [],
      "name": "owner",
      "outputs": [
        {
          "internalType": "address",
          "name": "",
          "type": "address"
        }
      ],
      "stateMutability": "view",
      "type": "function"
    },
    {
      "inputs": [],
      "name": "pyusdToken",
      "outputs": [
        {
          "internalType": "contract IERC20",
          "name": "",
          "type": "address"
        }
      ],
      "stateMutability": "view",
      "type": "function"
    },
    {
      "inputs": [
        {
          "internalType": "uint32",
          "name": "_dstEid",
          "type": "uint32"
        },
        {
          "internalType": "uint256",
          "name": "_amountLD",
          "type": "uint256"
        },
        {
          "internalType": "bytes",
          "name": "_options",
          "type": "bytes"
        }
      ],
      "name": "quoteSend",
      "outputs": [
        {
          "components": [
            {
              "internalType": "uint256",
              "name": "nativeFee",
              "type": "uint256"
            },
            {
              "internalType": "uint256",
              "name": "lzTokenFee",
              "type": "uint256"
            }
          ],
          "internalType": "struct OFTCore.MessagingFee",
          "name": "fee",
          "type": "tuple"
        }
      ],
      "stateMutability": "view",
      "type": "function"
    },
    {
      "inputs": [
        {
          "internalType": "address",
          "name": "_token",
          "type": "address"
        },
        {
          "internalType": "uint256",
          "name": "_amount",
          "type": "uint256"
        }
      ],
      "name": "recoverTokens",
      "outputs": [],
      "stateMutability": "nonpayable",
      "type": "function"
    },
    {
      "inputs": [],
      "name": "renounceOwnership",
      "outputs": [],
      "stateMutability": "nonpayable",
      "type": "function"
    },
    {
      "inputs": [
        {
          "internalType": "uint32",
          "name": "_dstEid",
          "type": "uint32"
        },
        {
          "internalType": "bytes32",
          "name": "_to",
          "type": "bytes32"
        },
        {
          "internalType": "uint256",
          "name": "_amountLD",
          "type": "uint256"
        },
        {
          "internalType": "bytes",
          "name": "_options",
          "type": "bytes"
        }
      ],
      "name": "sendPYUSD",
      "outputs": [],
      "stateMutability": "payable",
      "type": "function"
    },
    {
      "inputs": [],
      "name": "sharedDecimals",
      "outputs": [
        {
          "internalType": "uint8",
          "name": "",
          "type": "uint8"
        }
      ],
      "stateMutability": "view",
      "type": "function"
    },
    {
      "inputs": [
        {
          "internalType": "uint32",
          "name": "",
          "type": "uint32"
        }
      ],
      "name": "supportedChains",
      "outputs": [
        {
          "internalType": "bool",
          "name": "",
          "type": "bool"
        }
      ],
      "stateMutability": "view",
      "type": "function"
    },
    {
      "inputs": [
        {
          "internalType": "address",
          "name": "newOwner",
          "type": "address"
        }
      ],
      "name": "transferOwnership",
      "outputs": [],
      "stateMutability": "nonpayable",
      "type": "function"
    }
  ],
  "transactionHash": "0xad4ad43d774ca9a5f3f934a293e5538d2aa4fb0a363caab006bd10386685c1b6",
  "args": [
    "0x8f8863423c13844c042Ef85708607D094a05B2bE",
    "0x0000000000000000000000000000000000000000",
    "0x333774891681e69093bE0000b8f9Db0d280Ae6Ed"
  ],
  "numDeployments": 1,
  "solcInputHash": "ae6eb21eb1f9879ea2d05131cef739be",
  "bytecode": "0x60e060405234801561001057600080fd5b50604051610e4e380380610e4e83398101604081905261002f91610269565b60068282806001600160a01b03811661006257604051631e4fbdf760e01b81526000600482015260240160405180910390fd5b61006b816101fd565b505060ff919091166080526001600160a01b0390811660a052831660c08190527f8e1dc0a46ff46e8461d9a157081ee85b8bb07a4fbeae60a7e016f850d449f3098054600160ff1991821681179092557ff470b7b2da8073bab8457c0069e79fbf72da0cac92208ae95a7e6ce671759e4880546001600160a01b031990811685179091557fa02820dd47624f70d4b2f7aa4fd1b7b8a615a9cb2c2bc2b13e276dcd00bbe89880548316841790557fcb6ef6d2a10c1df4e0155bc3e67e8423ea6197dc63e5dcc995cd93b05aed15b280548216851790557f1378e6ba9eba1f198e71ba57176940a1b8011ec2671619bc56338d4882f076aa80548316841790557f62cdd21b5a8f8781ff74a3f7b7614bb0f7f00c9e76e6f70194cb84d5ae9f4288805482168517905561759f6000527f8d103fe7a3184fc50c7234d864b16b44e4ef210b829afc8c88efdcba65feb7a5805490921683179091556020919091527fb2eae19a09cd72a747ec9b144f9984ff126df890b52e5f9f78efd5cc9f84f7ca805490911690911790555050506102ac565b600080546001600160a01b038381166001600160a01b0319831681178455604051919092169283917f8be0079c531659141344cd1fd0a4f28419497f9722a3daafe3b4186f6b6457e09190a35050565b80516001600160a01b038116811461026457600080fd5b919050565b60008060006060848603121561027e57600080fd5b6102878461024d565b92506102956020850161024d565b91506102a36040850161024d565b90509250925092565b60805160a05160c051610b6c6102e26000396000818161023b015261086c01526000610284015260006101a30152610b6c6000f3fe6080604052600436106100c25760003560e01c8063877f66e31161007f5780639716796411610059578063971679641461025d578063b353aaa714610272578063da6630fe146102a6578063f2fde38b146102dc57600080fd5b8063877f66e3146101d75780638da5cb5b146101f7578063917630091461022957600080fd5b8063069c9fae146100c7578063248514dd146100e95780632e03a8021461012e57806370047bcd14610169578063715018a61461017c578063857749b014610191575b600080fd5b3480156100d357600080fd5b506100e76100e2366004610936565b6102fc565b005b3480156100f557600080fd5b50610119610104366004610974565b60026020526000908152604090205460ff1681565b60405190151581526020015b60405180910390f35b34801561013a57600080fd5b5061014e6101493660046109df565b61032e565b60408051825181526020928301519281019290925201610125565b6100e7610177366004610a39565b6103f1565b34801561018857600080fd5b506100e761051d565b34801561019d57600080fd5b506101c57f000000000000000000000000000000000000000000000000000000000000000081565b60405160ff9091168152602001610125565b3480156101e357600080fd5b506100e76101f2366004610aa1565b610531565b34801561020357600080fd5b506000546001600160a01b03165b6040516001600160a01b039091168152602001610125565b34801561023557600080fd5b506102117f000000000000000000000000000000000000000000000000000000000000000081565b34801561026957600080fd5b506101c5600681565b34801561027e57600080fd5b506102117f000000000000000000000000000000000000000000000000000000000000000081565b3480156102b257600080fd5b506102116102c1366004610974565b6001602052600090815260409020546001600160a01b031681565b3480156102e857600080fd5b506100e76102f7366004610ad4565b6105b6565b6103046105f4565b61032a6103196000546001600160a01b031690565b6001600160a01b0384169083610621565b5050565b60408051808201909152600080825260208201526040805160e08101825263ffffffff871681523360208201529081018590526103e890606081016064610376886063610aef565b6103809190610b14565b815260200185858080601f01602080910402602001604051908101604052809392919081815260200183838082843760009201829052509385525050604080516020818101835284825280860191909152815190810182528381529301929092529050610685565b95945050505050565b63ffffffff851660009081526002602052604090205460ff1661045b5760405162461bcd60e51b815260206004820152601960248201527f44657374696e6174696f6e206e6f7420737570706f727465640000000000000060448201526064015b60405180910390fd5b6105156040518060e001604052808763ffffffff16815260200186815260200185815260200160648660636104909190610aef565b61049a9190610b14565b815260200184848080601f01602080910402602001604051908101604052809392919081815260200183838082843760009201829052509385525050604080516020818101835284825280860191909152815180820183528481529482019490945280518082019091523481529283019190915250336106b8565b505050505050565b6105256105f4565b61052f6000610731565b565b6105396105f4565b63ffffffff821660008181526002602090815260408083208054600160ff19909116811790915582529182902080546001600160a01b0319166001600160a01b03861690811790915591519182527fdb9278f0c334aa2d5dc8eee4b3a0311c7e5b2fd897697ab2fc3c252fe20a80a0910160405180910390a25050565b6105be6105f4565b6001600160a01b0381166105e857604051631e4fbdf760e01b815260006004820152602401610452565b6105f181610731565b50565b6000546001600160a01b0316331461052f5760405163118cdaa760e01b8152336004820152602401610452565b6040516001600160a01b0383811660248301526044820183905261068091859182169063a9059cbb906064015b604051602081830303815290604052915060e01b6020820180516001600160e01b038381831617835250505050610781565b505050565b60408051808201825260008082526020918201819052825180840190935266038d7ea4c680008352908201525b92915050565b60008060006106d48660400151876060015188600001516107f8565b87516020808a0151604051949650929450610710934293910192835260e09190911b6001600160e01b0319166020830152602482015260440190565b60405160208183030381529060405280519060200120925050509392505050565b600080546001600160a01b038381166001600160a01b0319831681178455604051919092169283917f8be0079c531659141344cd1fd0a4f28419497f9722a3daafe3b4186f6b6457e09190a35050565b600080602060008451602086016000885af1806107a4576040513d6000823e3d81fd5b50506000513d915081156107bc5780600114156107c9565b6001600160a01b0384163b155b156107f257604051635274afe760e01b81526001600160a01b0385166004820152602401610452565b50505050565b63ffffffff8116600090815260026020526040812054819060ff1661085f5760405162461bcd60e51b815260206004820152601f60248201527f44657374696e6174696f6e20636861696e206e6f7420737570706f72746564006044820152606401610452565b6108946001600160a01b037f0000000000000000000000000000000000000000000000000000000000000000163330886108e1565b505060405183815283908190339063ffffffff85169082907f127d9f3ee0f1562f7a3f0b76df1d5cf8ffa1475473a5712684e7186e97edb4979060200160405180910390a4935093915050565b6040516001600160a01b0384811660248301528381166044830152606482018390526107f29186918216906323b872dd9060840161064e565b80356001600160a01b038116811461093157600080fd5b919050565b6000806040838503121561094957600080fd5b6109528361091a565b946020939093013593505050565b803563ffffffff8116811461093157600080fd5b60006020828403121561098657600080fd5b61098f82610960565b9392505050565b60008083601f8401126109a857600080fd5b50813567ffffffffffffffff8111156109c057600080fd5b6020830191508360208285010111156109d857600080fd5b9250929050565b600080600080606085870312156109f557600080fd5b6109fe85610960565b935060208501359250604085013567ffffffffffffffff811115610a2157600080fd5b610a2d87828801610996565b95989497509550505050565b600080600080600060808688031215610a5157600080fd5b610a5a86610960565b94506020860135935060408601359250606086013567ffffffffffffffff811115610a8457600080fd5b610a9088828901610996565b969995985093965092949392505050565b60008060408385031215610ab457600080fd5b610abd83610960565b9150610acb6020840161091a565b90509250929050565b600060208284031215610ae657600080fd5b61098f8261091a565b80820281158282048414176106b257634e487b7160e01b600052601160045260246000fd5b600082610b3157634e487b7160e01b600052601260045260246000fd5b50049056fea26469706673582212204758feaea67a2c628922b71b7ae465af9e60dfe4dda82e056005f799afec38bc64736f6c63430008160033",
  "devdoc": {
    "details": "Maintains 6 decimal precision across all chains for PYUSD",
    "errors": {
      "OwnableInvalidOwner(address)": [
        {
          "details": "The owner is not a valid owner account. (eg. `address(0)`)"
        }
      ],
      "OwnableUnauthorizedAccount(address)": [
        {
          "details": "The caller account is not authorized to perform an operation."
        }
      ],
      "SafeERC20FailedOperation(address)": [
        {
          "details": "An operation with an ERC-20 token failed."
        }
      ]
    },
    "kind": "dev",
    "methods": {
      "owner()": {
        "details": "Returns the address of the current owner."
      },
      "renounceOwnership()": {
        "details": "Leaves the contract without owner. It will not be possible to call `onlyOwner` functions. Can only be called by the current owner. NOTE: Renouncing ownership will leave the contract without an owner, thereby disabling any functionality that is only available to the owner."
      },
      "transferOwnership(address)": {
        "details": "Transfers ownership of the contract to a new account (`newOwner`). Can only be called by the current owner."
      }
    },
    "title": "PYUSDOFTAdapter",
    "version": 1
  },
  "userdoc": {
    "kind": "user",
    "methods": {
      "addSupportedChain(uint32,address)": {
        "notice": "Add support for new chain"
      },
      "quoteSend(uint32,uint256,bytes)": {
        "notice": "Quote fee for cross-chain transfer"
      },
      "recoverTokens(address,uint256)": {
        "notice": "Emergency token recovery"
      },
      "sendPYUSD(uint32,bytes32,uint256,bytes)": {
        "notice": "Send PYUSD cross-chain"
      }
    },
    "notice": "LayerZero OFT Adapter for PYUSD enabling cross-chain transfers",
    "version": 1
  },
  "storageLayout": {
    "storage": [
      {
        "astId": 8,
        "contract": "contracts/PYUSDOFTAdapter.sol:PYUSDOFTAdapter",
        "label": "_owner",
        "offset": 0,
        "slot": "0",
        "type": "t_address"
      },
      {
        "astId": 3943,
        "contract": "contracts/PYUSDOFTAdapter.sol:PYUSDOFTAdapter",
        "label": "chainTokenAddresses",
        "offset": 0,
        "slot": "1",
        "type": "t_mapping(t_uint32,t_address)"
      },
      {
        "astId": 3947,
        "contract": "contracts/PYUSDOFTAdapter.sol:PYUSDOFTAdapter",
        "label": "supportedChains",
        "offset": 0,
        "slot": "2",
        "type": "t_mapping(t_uint32,t_bool)"
      }
    ],
    "types": {
      "t_address": {
        "encoding": "inplace",
        "label": "address",
        "numberOfBytes": "20"
      },
      "t_bool": {
        "encoding": "inplace",
        "label": "bool",
        "numberOfBytes": "1"
      },
      "t_mapping(t_uint32,t_address)": {
        "encoding": "mapping",
        "key": "t_uint32",
        "label": "mapping(uint32 => address)",
        "numberOfBytes": "32",
        "value": "t_address"
      },
      "t_mapping(t_uint32,t_bool)": {
        "encoding": "mapping",
        "key": "t_uint32",
        "label": "mapping(uint32 => bool)",
        "numberOfBytes": "32",
        "value": "t_bool"
      },
      "t_uint32": {
        "encoding": "inplace",
        "label": "uint32",
        "numberOfBytes": "4"
      }
    }
  }
}