{
  "address": "0xAEAb897238015ce8d9C8a248B897D8aea3806795",
  "abi": [
    {
      "inputs": [
        {
          "internalType": "address",
          "name": "_endpoint",
          "type": "address"
        },
        {
          "internalType": "address",
          "name": "_pyusd",
          "type": "address"
        },
        {
          "internalType": "address",
          "name": "_owner",
          "type": "address"
        }
      ],
      "stateMutability": "nonpayable",
      "type": "constructor"
    },
    {
      "inputs": [
        {
          "internalType": "address",
          "name": "owner",
          "type": "address"
        }
      ],
      "name": "OwnableInvalidOwner",
      "type": "error"
    },
    {
      "inputs": [
        {
          "internalType": "address",
          "name": "account",
          "type": "address"
        }
      ],
      "name": "OwnableUnauthorizedAccount",
      "type": "error"
    },
    {
      "inputs": [
        {
          "internalType": "address",
          "name": "token",
          "type": "address"
        }
      ],
      "name": "SafeERC20FailedOperation",
      "type": "error"
    },
    {
      "anonymous": false,
      "inputs": [
        {
          "indexed": true,
          "internalType": "bytes32",
          "name": "oApp",
          "type": "bytes32"
        },
        {
          "indexed": true,
          "internalType": "address",
          "name": "implementation",
          "type": "address"
        }
      ],
      "name": "OAppRegistered",
      "type": "event"
    },
    {
      "anonymous": false,
      "inputs": [
        {
          "indexed": true,
          "internalType": "address",
          "name": "previousOwner",
          "type": "address"
        },
        {
          "indexed": true,
          "internalType": "address",
          "name": "newOwner",
          "type": "address"
        }
      ],
      "name": "OwnershipTransferred",
      "type": "event"
    },
    {
      "anonymous": false,
      "inputs": [
        {
          "indexed": true,
          "internalType": "address",
          "name": "recipient",
          "type": "address"
        },
        {
          "indexed": true,
          "internalType": "address",
          "name": "fromToken",
          "type": "address"
        },
        {
          "indexed": true,
          "internalType": "address",
          "name": "toToken",
          "type": "address"
        },
        {
          "indexed": false,
          "internalType": "uint256",
          "name": "amountIn",
          "type": "uint256"
        },
        {
          "indexed": false,
          "internalType": "uint256",
          "name": "amountOut",
          "type": "uint256"
        }
      ],
      "name": "SwapExecuted",
      "type": "event"
    },
    {
      "inputs": [
        {
          "internalType": "address",
          "name": "_token",
          "type": "address"
        },
        {
          "internalType": "address",
          "name": "_router",
          "type": "address"
        }
      ],
      "name": "addSupportedToken",
      "outputs": [],
      "stateMutability": "nonpayable",
      "type": "function"
    },
    {
      "inputs": [],
      "name": "endpoint",
      "outputs": [
        {
          "internalType": "contract ILayerZeroEndpointV2",
          "name": "",
          "type": "address"
        }
      ],
      "stateMutability": "view",
      "type": "function"
    },
    {
      "inputs": [
        {
          "internalType": "address",
          "name": "_from",
          "type": "address"
        },
        {
          "internalType": "bytes32",
          "name": "_guid",
          "type": "bytes32"
        },
        {
          "internalType": "bytes",
          "name": "_message",
          "type": "bytes"
        },
        {
          "internalType": "address",
          "name": "_executor",
          "type": "address"
        },
        {
          "internalType": "bytes",
          "name": "_extraData",
          "type": "bytes"
        }
      ],
      "name": "lzCompose",
      "outputs": [],
      "stateMutability": "payable",
      "type": "function"
    },
    {
      "inputs": [
        {
          "internalType": "bytes32",
          "name": "",
          "type": "bytes32"
        }
      ],
      "name": "oAppRegistry",
      "outputs": [
        {
          "internalType": "address",
          "name": "",
          "type": "address"
        }
      ],
      "stateMutability": "view",
      "type": "function"
    },
    {
      "inputs": [],
      "name": "owner",
      "outputs": [
        {
          "internalType": "address",
          "name": "",
          "type": "address"
        }
      ],
      "stateMutability": "view",
      "type": "function"
    },
    {
      "inputs": [],
      "name": "pyusd",
      "outputs": [
        {
          "internalType": "address",
          "name": "",
          "type": "address"
        }
      ],
      "stateMutability": "view",
      "type": "function"
    },
    {
      "inputs": [
        {
          "internalType": "uint256",
          "name": "amountIn",
          "type": "uint256"
        },
        {
          "internalType": "address",
          "name": "targetToken",
          "type": "address"
        }
      ],
      "name": "quoteSwap",
      "outputs": [
        {
          "internalType": "uint256",
          "name": "expectedOut",
          "type": "uint256"
        }
      ],
      "stateMutability": "view",
      "type": "function"
    },
    {
      "inputs": [
        {
          "internalType": "address",
          "name": "_token",
          "type": "address"
        },
        {
          "internalType": "uint256",
          "name": "_amount",
          "type": "uint256"
        }
      ],
      "name": "recoverTokens",
      "outputs": [],
      "stateMutability": "nonpayable",
      "type": "function"
    },
    {
      "inputs": [
        {
          "internalType": "bytes32",
          "name": "_oApp",
          "type": "bytes32"
        },
        {
          "internalType": "address",
          "name": "_implementation",
          "type": "address"
        }
      ],
      "name": "registerOApp",
      "outputs": [],
      "stateMutability": "nonpayable",
      "type": "function"
    },
    {
      "inputs": [],
      "name": "renounceOwnership",
      "outputs": [],
      "stateMutability": "nonpayable",
      "type": "function"
    },
    {
      "inputs": [
        {
          "internalType": "address",
          "name": "",
          "type": "address"
        }
      ],
      "name": "supportedTokens",
      "outputs": [
        {
          "internalType": "bool",
          "name": "",
          "type": "bool"
        }
      ],
      "stateMutability": "view",
      "type": "function"
    },
    {
      "inputs": [
        {
          "internalType": "address",
          "name": "",
          "type": "address"
        }
      ],
      "name": "swapRouters",
      "outputs": [
        {
          "internalType": "address",
          "name": "",
          "type": "address"
        }
      ],
      "stateMutability": "view",
      "type": "function"
    },
    {
      "inputs": [
        {
          "internalType": "address",
          "name": "newOwner",
          "type": "address"
        }
      ],
      "name": "transferOwnership",
      "outputs": [],
      "stateMutability": "nonpayable",
      "type": "function"
    }
  ],
  "transactionHash": "0x81bcc892b3122ea0a20710394579c06d2d34e755861f802e82ef27e02775b359",
  "args": [
    "0x0000000000000000000000000000000000000000",
    "0x8f8863423c13844c042Ef85708607D094a05B2bE",
    "0x333774891681e69093bE0000b8f9Db0d280Ae6Ed"
  ],
  "numDeployments": 1,
  "solcInputHash": "ae6eb21eb1f9879ea2d05131cef739be",
  "bytecode": "0x60c060405234801561001057600080fd5b50604051610f86380380610f8683398101604081905261002f91610195565b806001600160a01b03811661005e57604051631e4fbdf760e01b81526000600482015260240160405180910390fd5b61006781610129565b506001600160a01b03808416608052821660a05261012160026020527fb7598821b71eb990d952f174dec3507a6d48dc93be8e23cae785c98ca310bfbb8054600160ff1991821681179092557ff4f699a1ef35e64890828cc562d137cceeab28af8455567ef14b6ec385c8e441805482168317905573c02aaa39b223fe8d0a0e5c4f27ead9083c756cc26000527fde032e96a833a2191f55c5766e34554d9b07734477ea9cb69c40158c1078e79380549091169091179055565b5050506101d8565b600080546001600160a01b038381166001600160a01b0319831681178455604051919092169283917f8be0079c531659141344cd1fd0a4f28419497f9722a3daafe3b4186f6b6457e09190a35050565b80516001600160a01b038116811461019057600080fd5b919050565b6000806000606084860312156101aa57600080fd5b6101b384610179565b92506101c160208501610179565b91506101cf60408501610179565b90509250925092565b60805160a051610d5861022e6000396000818161014e01528181610385015281816106b8015281816106fc0152818161073b015281816107ff015261084701526000818161019a015261044f0152610d586000f3fe6080604052600436106100c25760003560e01c8063715018a61161007f578063c2b7be1611610059578063c2b7be1614610265578063ceaec18614610285578063d0a10260146102bb578063f2fde38b146102ce57600080fd5b8063715018a6146101fc5780638da5cb5b146102115780639358bd4f1461022f57600080fd5b8063069c9fae146100c75780630e05490d146100e957806311886b8a1461010957806322e669d31461013c5780635e280f111461018857806368c4ac26146101bc575b600080fd5b3480156100d357600080fd5b506100e76100e2366004610aae565b6102ee565b005b3480156100f557600080fd5b506100e7610104366004610ada565b610320565b34801561011557600080fd5b50610129610124366004610ada565b610381565b6040519081526020015b60405180910390f35b34801561014857600080fd5b506101707f000000000000000000000000000000000000000000000000000000000000000081565b6040516001600160a01b039091168152602001610133565b34801561019457600080fd5b506101707f000000000000000000000000000000000000000000000000000000000000000081565b3480156101c857600080fd5b506101ec6101d7366004610b0a565b60026020526000908152604090205460ff1681565b6040519015158152602001610133565b34801561020857600080fd5b506100e76103e3565b34801561021d57600080fd5b506000546001600160a01b0316610170565b34801561023b57600080fd5b5061017061024a366004610b0a565b6001602052600090815260409020546001600160a01b031681565b34801561027157600080fd5b506100e7610280366004610b2e565b6103f7565b34801561029157600080fd5b506101706102a0366004610b5c565b6003602052600090815260409020546001600160a01b031681565b6100e76102c9366004610bbe565b610444565b3480156102da57600080fd5b506100e76102e9366004610b0a565b610539565b6102f6610577565b61031c61030b6000546001600160a01b031690565b6001600160a01b03841690836105a4565b5050565b610328610577565b60008281526003602052604080822080546001600160a01b0319166001600160a01b0385169081179091559051909184917f618fa058e2e36448418844626911148f4e482103f4e607d0e1dca6d929df515e9190a35050565b60007f00000000000000000000000000000000000000000000000000000000000000006001600160a01b0316826001600160a01b0316036103c35750816103dd565b60646103d0846063610c75565b6103da9190610c8c565b90505b92915050565b6103eb610577565b6103f56000610608565b565b6103ff610577565b6001600160a01b0391821660009081526002602090815260408083208054600160ff199091168117909155909152902080546001600160a01b03191691909216179055565b336001600160a01b037f000000000000000000000000000000000000000000000000000000000000000016146104b15760405162461bcd60e51b815260206004820152600d60248201526c13db9b1e48195b991c1bda5b9d609a1b60448201526064015b60405180910390fd5b6001600160a01b03878116600090815260036020526040902054166105075760405162461bcd60e51b815260206004820152600c60248201526b0556e6b6e6f776e204f4170760a41b60448201526064016104a8565b6000808080610518888a018a610cae565b935093509350935061052c84848484610658565b5050505050505050505050565b610541610577565b6001600160a01b03811661056b57604051631e4fbdf760e01b8152600060048201526024016104a8565b61057481610608565b50565b6000546001600160a01b031633146103f55760405163118cdaa760e01b81523360048201526024016104a8565b6040516001600160a01b0383811660248301526044820183905261060391859182169063a9059cbb906064015b604051602081830303815290604052915060e01b6020820180516001600160e01b0383818316178352505050506108c4565b505050565b600080546001600160a01b038381166001600160a01b0319831681178455604051919092169283917f8be0079c531659141344cd1fd0a4f28419497f9722a3daafe3b4186f6b6457e09190a35050565b6001600160a01b03821660009081526002602052604090205460ff166106b65760405162461bcd60e51b8152602060048201526013602482015272151bdad95b881b9bdd081cdd5c1c1bdc9d1959606a1b60448201526064016104a8565b7f00000000000000000000000000000000000000000000000000000000000000006001600160a01b0316826001600160a01b031603610793576107236001600160a01b037f00000000000000000000000000000000000000000000000000000000000000001685856105a4565b60408051848152602081018590526001600160a01b037f00000000000000000000000000000000000000000000000000000000000000008116928392918816917f764f0dc063c06f32d89a3f3af80c0db4be8a090901f589a478b447e0a51f09f1910160405180910390a46108be565b6001600160a01b0380831660009081526001602052604090205416806107f25760405162461bcd60e51b8152602060048201526014602482015273139bc81c9bdd5d195c8818dbdb999a59dd5c995960621b60448201526064016104a8565b6108266001600160a01b037f0000000000000000000000000000000000000000000000000000000000000000168286610935565b8161083b6001600160a01b03851687836105a4565b836001600160a01b03167f00000000000000000000000000000000000000000000000000000000000000006001600160a01b0316876001600160a01b03167f764f0dc063c06f32d89a3f3af80c0db4be8a090901f589a478b447e0a51f09f188856040516108b3929190918252602082015260400190565b60405180910390a450505b50505050565b600080602060008451602086016000885af1806108e7576040513d6000823e3d81fd5b50506000513d915081156108ff57806001141561090c565b6001600160a01b0384163b155b156108be57604051635274afe760e01b81526001600160a01b03851660048201526024016104a8565b604051636eb1769f60e11b81523060048201526001600160a01b0383811660248301526000919085169063dd62ed3e90604401602060405180830381865afa158015610985573d6000803e3d6000fd5b505050506040513d601f19601f820116820180604052508101906109a99190610cf6565b90506108be84846109ba8585610d0f565b604080516001600160a01b038416602482015260448082018490528251808303909101815260649091019091526020810180516001600160e01b031663095ea7b360e01b179052610a0b8482610a4a565b6108be576040516001600160a01b03848116602483015260006044830152610a4091869182169063095ea7b3906064016105d1565b6108be84826108c4565b6000806000806020600086516020880160008a5af192503d91506000519050828015610a8f57508115610a805780600114610a8f565b6000866001600160a01b03163b115b9695505050505050565b6001600160a01b038116811461057457600080fd5b60008060408385031215610ac157600080fd5b8235610acc81610a99565b946020939093013593505050565b60008060408385031215610aed57600080fd5b823591506020830135610aff81610a99565b809150509250929050565b600060208284031215610b1c57600080fd5b8135610b2781610a99565b9392505050565b60008060408385031215610b4157600080fd5b8235610b4c81610a99565b91506020830135610aff81610a99565b600060208284031215610b6e57600080fd5b5035919050565b60008083601f840112610b8757600080fd5b50813567ffffffffffffffff811115610b9f57600080fd5b602083019150836020828501011115610bb757600080fd5b9250929050565b600080600080600080600060a0888a031215610bd957600080fd5b8735610be481610a99565b965060208801359550604088013567ffffffffffffffff80821115610c0857600080fd5b610c148b838c01610b75565b909750955060608a01359150610c2982610a99565b90935060808901359080821115610c3f57600080fd5b50610c4c8a828b01610b75565b989b979a50959850939692959293505050565b634e487b7160e01b600052601160045260246000fd5b80820281158282048414176103dd576103dd610c5f565b600082610ca957634e487b7160e01b600052601260045260246000fd5b500490565b60008060008060808587031215610cc457600080fd5b8435610ccf81610a99565b9350602085013592506040850135610ce681610a99565b9396929550929360600135925050565b600060208284031215610d0857600080fd5b5051919050565b808201808211156103dd576103dd610c5f56fea2646970667358221220aed1c6791f7757bf99c4dc7fc299eff77ec1b3cb369aac5842db4b21deb1713964736f6c63430008160033",
  "devdoc": {
    "errors": {
      "OwnableInvalidOwner(address)": [
        {
          "details": "The owner is not a valid owner account. (eg. `address(0)`)"
        }
      ],
      "OwnableUnauthorizedAccount(address)": [
        {
          "details": "The caller account is not authorized to perform an operation."
        }
      ],
      "SafeERC20FailedOperation(address)": [
        {
          "details": "An operation with an ERC-20 token failed."
        }
      ]
    },
    "kind": "dev",
    "methods": {
      "owner()": {
        "details": "Returns the address of the current owner."
      },
      "renounceOwnership()": {
        "details": "Leaves the contract without owner. It will not be possible to call `onlyOwner` functions. Can only be called by the current owner. NOTE: Renouncing ownership will leave the contract without an owner, thereby disabling any functionality that is only available to the owner."
      },
      "transferOwnership(address)": {
        "details": "Transfers ownership of the contract to a new account (`newOwner`). Can only be called by the current owner."
      }
    },
    "version": 1
  },
  "userdoc": {
    "kind": "user",
    "methods": {
      "addSupportedToken(address,address)": {
        "notice": "Add supported token"
      },
      "lzCompose(address,bytes32,bytes,address,bytes)": {
        "notice": "Compose receiver for LayerZero messages"
      },
      "quoteSwap(uint256,address)": {
        "notice": "Quote swap for planning"
      },
      "recoverTokens(address,uint256)": {
        "notice": "Emergency token recovery"
      },
      "registerOApp(bytes32,address)": {
        "notice": "Register OApp for composition"
      }
    },
    "version": 1
  },
  "storageLayout": {
    "storage": [
      {
        "astId": 8,
        "contract": "contracts/TokenSwapComposer.sol:TokenSwapComposer",
        "label": "_owner",
        "offset": 0,
        "slot": "0",
        "type": "t_address"
      },
      {
        "astId": 4918,
        "contract": "contracts/TokenSwapComposer.sol:TokenSwapComposer",
        "label": "swapRouters",
        "offset": 0,
        "slot": "1",
        "type": "t_mapping(t_address,t_address)"
      },
      {
        "astId": 4922,
        "contract": "contracts/TokenSwapComposer.sol:TokenSwapComposer",
        "label": "supportedTokens",
        "offset": 0,
        "slot": "2",
        "type": "t_mapping(t_address,t_bool)"
      },
      {
        "astId": 4926,
        "contract": "contracts/TokenSwapComposer.sol:TokenSwapComposer",
        "label": "oAppRegistry",
        "offset": 0,
        "slot": "3",
        "type": "t_mapping(t_bytes32,t_address)"
      }
    ],
    "types": {
      "t_address": {
        "encoding": "inplace",
        "label": "address",
        "numberOfBytes": "20"
      },
      "t_bool": {
        "encoding": "inplace",
        "label": "bool",
        "numberOfBytes": "1"
      },
      "t_bytes32": {
        "encoding": "inplace",
        "label": "bytes32",
        "numberOfBytes": "32"
      },
      "t_mapping(t_address,t_address)": {
        "encoding": "mapping",
        "key": "t_address",
        "label": "mapping(address => address)",
        "numberOfBytes": "32",
        "value": "t_address"
      },
      "t_mapping(t_address,t_bool)": {
        "encoding": "mapping",
        "key": "t_address",
        "label": "mapping(address => bool)",
        "numberOfBytes": "32",
        "value": "t_bool"
      },
      "t_mapping(t_bytes32,t_address)": {
        "encoding": "mapping",
        "key": "t_bytes32",
        "label": "mapping(bytes32 => address)",
        "numberOfBytes": "32",
        "value": "t_address"
      }
    }
  }
}