{
  "address": "0xa1b6050874b3d5C2664C5a7B73d88E3151f8A603",
  "abi": [
    {
      "inputs": [
        {
          "internalType": "address",
          "name": "_owner",
          "type": "address"
        }
      ],
      "stateMutability": "nonpayable",
      "type": "constructor"
    },
    {
      "inputs": [
        {
          "internalType": "address",
          "name": "owner",
          "type": "address"
        }
      ],
      "name": "OwnableInvalidOwner",
      "type": "error"
    },
    {
      "inputs": [
        {
          "internalType": "address",
          "name": "account",
          "type": "address"
        }
      ],
      "name": "OwnableUnauthorizedAccount",
      "type": "error"
    },
    {
      "inputs": [
        {
          "internalType": "address",
          "name": "token",
          "type": "address"
        }
      ],
      "name": "SafeERC20FailedOperation",
      "type": "error"
    },
    {
      "anonymous": false,
      "inputs": [
        {
          "indexed": true,
          "internalType": "address",
          "name": "previousOwner",
          "type": "address"
        },
        {
          "indexed": true,
          "internalType": "address",
          "name": "newOwner",
          "type": "address"
        }
      ],
      "name": "OwnershipTransferred",
      "type": "event"
    },
    {
      "anonymous": false,
      "inputs": [
        {
          "indexed": true,
          "internalType": "address",
          "name": "token0",
          "type": "address"
        },
        {
          "indexed": true,
          "internalType": "address",
          "name": "token1",
          "type": "address"
        },
        {
          "indexed": false,
          "internalType": "uint24",
          "name": "fee",
          "type": "uint24"
        },
        {
          "indexed": false,
          "internalType": "int24",
          "name": "tickSpacing",
          "type": "int24"
        }
      ],
      "name": "PoolConfigured",
      "type": "event"
    },
    {
      "anonymous": false,
      "inputs": [
        {
          "indexed": true,
          "internalType": "address",
          "name": "user",
          "type": "address"
        },
        {
          "indexed": true,
          "internalType": "address",
          "name": "tokenIn",
          "type": "address"
        },
        {
          "indexed": true,
          "internalType": "address",
          "name": "tokenOut",
          "type": "address"
        },
        {
          "indexed": false,
          "internalType": "uint256",
          "name": "amountIn",
          "type": "uint256"
        },
        {
          "indexed": false,
          "internalType": "uint256",
          "name": "amountOut",
          "type": "uint256"
        }
      ],
      "name": "SwapExecuted",
      "type": "event"
    },
    {
      "inputs": [],
      "name": "BASIS_POINTS",
      "outputs": [
        {
          "internalType": "uint256",
          "name": "",
          "type": "uint256"
        }
      ],
      "stateMutability": "view",
      "type": "function"
    },
    {
      "inputs": [],
      "name": "PERMIT2",
      "outputs": [
        {
          "internalType": "address",
          "name": "",
          "type": "address"
        }
      ],
      "stateMutability": "view",
      "type": "function"
    },
    {
      "inputs": [],
      "name": "POOL_MANAGER",
      "outputs": [
        {
          "internalType": "address",
          "name": "",
          "type": "address"
        }
      ],
      "stateMutability": "view",
      "type": "function"
    },
    {
      "inputs": [],
      "name": "POSITION_MANAGER",
      "outputs": [
        {
          "internalType": "address",
          "name": "",
          "type": "address"
        }
      ],
      "stateMutability": "view",
      "type": "function"
    },
    {
      "inputs": [],
      "name": "QUOTER",
      "outputs": [
        {
          "internalType": "address",
          "name": "",
          "type": "address"
        }
      ],
      "stateMutability": "view",
      "type": "function"
    },
    {
      "inputs": [],
      "name": "UNIVERSAL_ROUTER",
      "outputs": [
        {
          "internalType": "address",
          "name": "",
          "type": "address"
        }
      ],
      "stateMutability": "view",
      "type": "function"
    },
    {
      "inputs": [
        {
          "internalType": "address",
          "name": "tokenA",
          "type": "address"
        },
        {
          "internalType": "address",
          "name": "tokenB",
          "type": "address"
        },
        {
          "internalType": "uint24",
          "name": "fee",
          "type": "uint24"
        },
        {
          "internalType": "int24",
          "name": "tickSpacing",
          "type": "int24"
        },
        {
          "internalType": "address",
          "name": "hooks",
          "type": "address"
        }
      ],
      "name": "configurePool",
      "outputs": [],
      "stateMutability": "nonpayable",
      "type": "function"
    },
    {
      "inputs": [
        {
          "internalType": "address",
          "name": "tokenIn",
          "type": "address"
        },
        {
          "internalType": "address",
          "name": "tokenOut",
          "type": "address"
        },
        {
          "internalType": "uint256",
          "name": "amountIn",
          "type": "uint256"
        },
        {
          "internalType": "uint256",
          "name": "minAmountOut",
          "type": "uint256"
        }
      ],
      "name": "directPoolSwap",
      "outputs": [
        {
          "internalType": "uint256",
          "name": "amountOut",
          "type": "uint256"
        }
      ],
      "stateMutability": "nonpayable",
      "type": "function"
    },
    {
      "inputs": [
        {
          "internalType": "address",
          "name": "tokenA",
          "type": "address"
        },
        {
          "internalType": "address",
          "name": "tokenB",
          "type": "address"
        }
      ],
      "name": "getPool",
      "outputs": [
        {
          "components": [
            {
              "internalType": "address",
              "name": "currency0",
              "type": "address"
            },
            {
              "internalType": "address",
              "name": "currency1",
              "type": "address"
            },
            {
              "internalType": "uint24",
              "name": "fee",
              "type": "uint24"
            },
            {
              "internalType": "int24",
              "name": "tickSpacing",
              "type": "int24"
            },
            {
              "internalType": "address",
              "name": "hooks",
              "type": "address"
            }
          ],
          "internalType": "struct IPoolManager.PoolKey",
          "name": "",
          "type": "tuple"
        }
      ],
      "stateMutability": "view",
      "type": "function"
    },
    {
      "inputs": [
        {
          "internalType": "address",
          "name": "tokenIn",
          "type": "address"
        },
        {
          "internalType": "address",
          "name": "tokenOut",
          "type": "address"
        },
        {
          "internalType": "uint256",
          "name": "amountIn",
          "type": "uint256"
        }
      ],
      "name": "getQuote",
      "outputs": [
        {
          "internalType": "uint256",
          "name": "amountOut",
          "type": "uint256"
        }
      ],
      "stateMutability": "nonpayable",
      "type": "function"
    },
    {
      "inputs": [
        {
          "internalType": "address",
          "name": "tokenA",
          "type": "address"
        },
        {
          "internalType": "address",
          "name": "tokenB",
          "type": "address"
        }
      ],
      "name": "hasPool",
      "outputs": [
        {
          "internalType": "bool",
          "name": "",
          "type": "bool"
        }
      ],
      "stateMutability": "view",
      "type": "function"
    },
    {
      "inputs": [
        {
          "internalType": "address",
          "name": "tokenA",
          "type": "address"
        },
        {
          "internalType": "address",
          "name": "tokenB",
          "type": "address"
        },
        {
          "internalType": "uint24",
          "name": "fee",
          "type": "uint24"
        },
        {
          "internalType": "uint160",
          "name": "sqrtPriceX96",
          "type": "uint160"
        }
      ],
      "name": "initializePool",
      "outputs": [],
      "stateMutability": "nonpayable",
      "type": "function"
    },
    {
      "inputs": [],
      "name": "owner",
      "outputs": [
        {
          "internalType": "address",
          "name": "",
          "type": "address"
        }
      ],
      "stateMutability": "view",
      "type": "function"
    },
    {
      "inputs": [
        {
          "internalType": "address",
          "name": "",
          "type": "address"
        },
        {
          "internalType": "address",
          "name": "",
          "type": "address"
        }
      ],
      "name": "poolKeyIds",
      "outputs": [
        {
          "internalType": "bytes32",
          "name": "",
          "type": "bytes32"
        }
      ],
      "stateMutability": "view",
      "type": "function"
    },
    {
      "inputs": [
        {
          "internalType": "bytes32",
          "name": "",
          "type": "bytes32"
        }
      ],
      "name": "poolKeys",
      "outputs": [
        {
          "internalType": "address",
          "name": "currency0",
          "type": "address"
        },
        {
          "internalType": "address",
          "name": "currency1",
          "type": "address"
        },
        {
          "internalType": "uint24",
          "name": "fee",
          "type": "uint24"
        },
        {
          "internalType": "int24",
          "name": "tickSpacing",
          "type": "int24"
        },
        {
          "internalType": "address",
          "name": "hooks",
          "type": "address"
        }
      ],
      "stateMutability": "view",
      "type": "function"
    },
    {
      "inputs": [
        {
          "internalType": "address",
          "name": "token",
          "type": "address"
        },
        {
          "internalType": "uint256",
          "name": "amount",
          "type": "uint256"
        }
      ],
      "name": "recoverToken",
      "outputs": [],
      "stateMutability": "nonpayable",
      "type": "function"
    },
    {
      "inputs": [],
      "name": "renounceOwnership",
      "outputs": [],
      "stateMutability": "nonpayable",
      "type": "function"
    },
    {
      "inputs": [
        {
          "internalType": "uint256",
          "name": "_slippageTolerance",
          "type": "uint256"
        }
      ],
      "name": "setSlippageTolerance",
      "outputs": [],
      "stateMutability": "nonpayable",
      "type": "function"
    },
    {
      "inputs": [],
      "name": "slippageTolerance",
      "outputs": [
        {
          "internalType": "uint256",
          "name": "",
          "type": "uint256"
        }
      ],
      "stateMutability": "view",
      "type": "function"
    },
    {
      "inputs": [
        {
          "internalType": "address",
          "name": "tokenIn",
          "type": "address"
        },
        {
          "internalType": "address",
          "name": "tokenOut",
          "type": "address"
        },
        {
          "internalType": "uint256",
          "name": "amountIn",
          "type": "uint256"
        },
        {
          "internalType": "uint256",
          "name": "amountOutMinimum",
          "type": "uint256"
        },
        {
          "internalType": "address",
          "name": "recipient",
          "type": "address"
        }
      ],
      "name": "swapExactInputSingle",
      "outputs": [
        {
          "internalType": "uint256",
          "name": "amountOut",
          "type": "uint256"
        }
      ],
      "stateMutability": "nonpayable",
      "type": "function"
    },
    {
      "inputs": [
        {
          "internalType": "address",
          "name": "newOwner",
          "type": "address"
        }
      ],
      "name": "transferOwnership",
      "outputs": [],
      "stateMutability": "nonpayable",
      "type": "function"
    }
  ],
  "transactionHash": "0xe592e0c7ec325a5cbcd8ecc56ff499d36eac3ca73990e1a4bfd8ea18a3f04414",
  "args": [
    "0x333774891681e69093bE0000b8f9Db0d280Ae6Ed"
  ],
  "numDeployments": 1,
  "solcInputHash": "539badc60c87a536c069660d9196b13f",
  "bytecode": "0x608060405261012c6001553480156200001757600080fd5b5060405162002033380380620020338339810160408190526200003a91620001f5565b806001600160a01b0381166200006b57604051631e4fbdf760e01b8152600060048201526024015b60405180910390fd5b6200007681620001a5565b50733a9d48ab9751398bbfa63ad67599bb04e4bdf98b3b620000db5760405162461bcd60e51b815260206004820152601d60248201527f556e6976657273616c20526f75746572206e6f74206465706c6f796564000000604482015260640162000062565b73e03a1074c86cfedd5c142c4f04f1a1536e2035433b6200013f5760405162461bcd60e51b815260206004820152601960248201527f506f6f6c204d616e61676572206e6f74206465706c6f79656400000000000000604482015260640162000062565b6e22d473030f116ddee9f6b43ac78ba33b6200019e5760405162461bcd60e51b815260206004820152601460248201527f5065726d697432206e6f74206465706c6f796564000000000000000000000000604482015260640162000062565b5062000227565b600080546001600160a01b038381166001600160a01b0319831681178455604051919092169283917f8be0079c531659141344cd1fd0a4f28419497f9722a3daafe3b4186f6b6457e09190a35050565b6000602082840312156200020857600080fd5b81516001600160a01b03811681146200022057600080fd5b9392505050565b611dfc80620002376000396000f3fe608060405234801561001057600080fd5b50600436106101375760003560e01c80638da5cb5b116100b8578063c515ee231161007c578063c515ee231461033d578063d03153aa14610350578063d6432fab14610359578063e1f1c4a7146103a4578063e8dd7fc3146103ad578063f2fde38b146103c857600080fd5b80638da5cb5b146102545780638dae88c214610265578063a4a312a714610280578063ac7e1e9214610293578063b29a81401461032a57600080fd5b806359953f16116100ff57806359953f16146101f557806362308e85146102085780636afdd850146102235780636fb1461a14610239578063715018a61461024c57600080fd5b8063117da1ee1461013c5780631bea83fe14610151578063516b83f114610189578063531aa03e146101aa57806354785bd3146101ca575b600080fd5b61014f61014a3660046117ca565b6103db565b005b61016c73429ba70129df741b2ca2a85bc3a2a3328e5c09b481565b6040516001600160a01b0390911681526020015b60405180910390f35b61019c6101973660046117f8565b610433565b604051908152602001610180565b6101bd6101b836600461183e565b6106ad565b60405161018091906118ba565b61019c6101d836600461183e565b600360209081526000928352604080842090915290825290205481565b61019c6102033660046118c8565b6107a5565b61016c73e03a1074c86cfedd5c142c4f04f1a1536e20354381565b61016c6e22d473030f116ddee9f6b43ac78ba381565b61014f61024736600461193f565b610ead565b61014f610fe5565b6000546001600160a01b031661016c565b61016c7361b3f2011a92d183c7dbadbda940a7555ccf922781565b61014f61028e3660046119a8565b610ff9565b6102ea6102a13660046117ca565b600260208190526000918252604090912080546001820154918301546001600160a01b03918216938383169362ffffff600160a01b82041693600160b81b90910490910b911685565b604080516001600160a01b039687168152948616602086015262ffffff9093169284019290925260020b606083015291909116608082015260a001610180565b61014f610338366004611a09565b611296565b61019c61034b366004611a35565b6112c8565b61019c60015481565b61039461036736600461183e565b6001600160a01b039182166000908152600360209081526040808320939094168252919091522054151590565b6040519015158152602001610180565b61019c61271081565b61016c733a9d48ab9751398bbfa63ad67599bb04e4bdf98b81565b61014f6103d6366004611a76565b611492565b6103e36114d0565b6103e881111561042e5760405162461bcd60e51b81526020600482015260116024820152700a6d8d2e0e0c2ceca40e8dede40d0d2ced607b1b60448201526064015b60405180910390fd5b600155565b6001600160a01b038085166000908152600360209081526040808320938716835292905290812054806104785760405162461bcd60e51b815260040161042590611a9a565b600081815260026020818152604092839020835160a08101855281546001600160a01b0390811680835260018401548083169584019590955262ffffff600160a01b86041696830196909652600160b81b909304840b6060820152920154811660808301529091908816908114906104f2903330896114fd565b61051a6001600160a01b03891673e03a1074c86cfedd5c142c4f04f1a1536e2035438861156a565b6040805160a08101825283815282151560208083019190915281830189905260006060830181905283518083018552818152608084015283519182018452808252925163d494417b60e01b8152919291829173e03a1074c86cfedd5c142c4f04f1a1536e2035439163d494417b916105989189918891600401611b17565b60408051808303816000875af11580156105b6573d6000803e3d6000fd5b505050506040513d601f19601f820116820180604052508101906105da9190611b95565b91509150836105f1576105ec82611bcf565b6105fa565b6105fa81611bcf565b9650878710156106405760405162461bcd60e51b815260206004820152601160248201527014db1a5c1c1859d948195e18d959591959607a1b6044820152606401610425565b6106546001600160a01b038b1633896115f4565b604080518a8152602081018990526001600160a01b03808d1692908e169133917f764f0dc063c06f32d89a3f3af80c0db4be8a090901f589a478b447e0a51f09f1910160405180910390a4505050505050949350505050565b6040805160a0810182526000808252602080830182905282840182905260608301829052608083018290526001600160a01b03868116835260038252848320908616835290529190912054806107365760405162461bcd60e51b815260206004820152600e60248201526d141bdbdb081b9bdd08199bdd5b9960921b6044820152606401610425565b600090815260026020818152604092839020835160a08101855281546001600160a01b03908116825260018301548082169483019490945262ffffff600160a01b85041695820195909552600160b81b909204830b606083015290910154909116608082015290505b92915050565b60008084116107ed5760405162461bcd60e51b8152602060048201526014602482015273125b9d985b1a59081a5b9c1d5d08185b5bdd5b9d60621b6044820152606401610425565b6001600160a01b0382166108375760405162461bcd60e51b8152602060048201526011602482015270125b9d985b1a59081c9958da5c1a595b9d607a1b6044820152606401610425565b6001600160a01b038087166000908152600360209081526040808320938916835292905220548061087a5760405162461bcd60e51b815260040161042590611a9a565b600081815260026020818152604092839020835160a08101855281546001600160a01b03908116825260018301548082169483019490945262ffffff600160a01b85041695820195909552600160b81b909204830b60608301529091015482166080820152906108ee9089163330896114fd565b6109116001600160a01b0389166e22d473030f116ddee9f6b43ac78ba38861156a565b6e22d473030f116ddee9f6b43ac78ba36387517c4589733a9d48ab9751398bbfa63ad67599bb04e4bdf98b8961094942610e10611beb565b6040516001600160e01b031960e087901b1681526001600160a01b03948516600482015292841660248401529216604482015265ffffffffffff9091166064820152608401600060405180830381600087803b1580156109a857600080fd5b505af11580156109bc573d6000803e3d6000fd5b505060408051808201825260018082526000602080840182905284518086018652838152600160fc1b8183015285518087018752938452601160f81b848301529451919650610a0f955092939201611bfe565b60408051601f1981840301815282825284516003808552608085019093529093506001600160a01b038c811691161491600091602082015b6060815260200190600190039081610a4757905050905083828a600060405180602001604052806000815250604051602001610a87959493929190611c41565b60405160208183030381529060405281600081518110610aa957610aa9611c82565b602090810291909101810191909152604080516001600160a01b038e169281019290925281018a90526001606082015260800160405160208183030381529060405281600181518110610afe57610afe611c82565b602090810291909101810191909152604080516001600160a01b03808e1693820193909352918916908201526060810189905260800160405160208183030381529060405281600281518110610b5657610b56611c82565b60209081029190910101526040516370a0823160e01b81526001600160a01b038881166004830152600091908c16906370a0823190602401602060405180830381865afa158015610bab573d6000803e3d6000fd5b505050506040513d601f19601f82011682018060405250810190610bcf9190611c98565b6040516324856bc360e01b8152909150733a9d48ab9751398bbfa63ad67599bb04e4bdf98b906324856bc390610c0b9087908690600401611cb1565b600060405180830381600087803b158015610c2557600080fd5b505af1925050508015610c36575060015b610d85576040516370a0823160e01b81523060048201526000906001600160a01b038d16906370a0823190602401602060405180830381865afa158015610c81573d6000803e3d6000fd5b505050506040513d601f19601f82011682018060405250810190610ca59190611c98565b9050898110610d37576103e8610cbd8c6103e5611d23565b610cc79190611d3a565b975080881115610cd5578097505b89881015610d1e5760405162461bcd60e51b8152602060048201526016602482015275496e73756666696369656e74206c697175696469747960501b6044820152606401610425565b610d326001600160a01b038d168a8a6115f4565b610d7f565b60405162461bcd60e51b815260206004820152601d60248201527f496e73756666696369656e7420726f75746572206c69717569646974790000006044820152606401610425565b50610e03565b6040516370a0823160e01b81526001600160a01b038981166004830152600091908d16906370a0823190602401602060405180830381865afa158015610dcf573d6000803e3d6000fd5b505050506040513d601f19601f82011682018060405250810190610df39190611c98565b9050610dff8282611d5c565b9750505b88871015610e535760405162461bcd60e51b815260206004820152601a60248201527f496e73756666696369656e74206f757470757420616d6f756e740000000000006044820152606401610425565b604080518b8152602081018990526001600160a01b03808e1692908f169133917f764f0dc063c06f32d89a3f3af80c0db4be8a090901f589a478b447e0a51f09f1910160405180910390a450505050505095945050505050565b610eb56114d0565b6001600160a01b0380851660009081526003602090815260408083209387168352929052205480610ef85760405162461bcd60e51b815260040161042590611a9a565b6000818152600260208181526040808420815160a08101835281546001600160a01b03908116825260018301548082168387015262ffffff600160a01b82041683860152600160b81b9004860b6060830152919094015416608084015280519182018152928152915163695c5bf560e01b8152909173e03a1074c86cfedd5c142c4f04f1a1536e2035439163695c5bf591610f999185918891600401611d6f565b6020604051808303816000875af1158015610fb8573d6000803e3d6000fd5b505050506040513d601f19601f82011682018060405250810190610fdc9190611da9565b50505050505050565b610fed6114d0565b610ff7600061162a565b565b6110016114d0565b836001600160a01b0316856001600160a01b0316036110555760405162461bcd60e51b815260206004820152601060248201526f4964656e746963616c20746f6b656e7360801b6044820152606401610425565b8262ffffff166101f4148061107057508262ffffff16610bb8145b8061108157508262ffffff16612710145b6110c05760405162461bcd60e51b815260206004820152601060248201526f24b73b30b634b2103332b2903a34b2b960811b6044820152606401610425565b600080856001600160a01b0316876001600160a01b0316106110e35785876110e6565b86865b9150915060006040518060a00160405280846001600160a01b03168152602001836001600160a01b031681526020018762ffffff1681526020018660020b8152602001856001600160a01b031681525090506000838388604051602001611173939291906001600160a01b03938416815291909216602082015262ffffff91909116604082015260600190565b60408051808303601f19018152828252805160209182012060008181526002808452848220885181546001600160a01b03199081166001600160a01b039283161783558a8701516001840180548d8b015160608f01519386166001600160b81b031990921691909117600160a01b62ffffff928316021762ffffff60b81b1916600160b81b9382169390930292909217905560808c015193850180549092169383169390931790558b81168085526003808852888620928d168087529288528886208790558752878520818652875293879020859055908e168752908c900b93860193909352909450909290917f8aa4a552708415f63ab7ede799b1917b93f9494329c120e5e36c84bf6b12577c910160405180910390a3505050505050505050565b61129e6114d0565b6112c46112b36000546001600160a01b031690565b6001600160a01b03841690836115f4565b5050565b6001600160a01b0380841660009081526003602090815260408083209386168352929052908120548061130d5760405162461bcd60e51b815260040161042590611a9a565b6000818152600260208181526040808420815160a0808201845282546001600160a01b03908116835260018401548082168488015262ffffff600160a01b82048116858801908152600160b81b909204890b60608087019190915295909801548216608080860191909152865160e0810188528f841681528e841698810198895291518916828801908152309683019687529082018d81529382018a815260c083019a8b52965163b2e70c2f60e01b8152825184166004820152975183166024890152519097166044870152925183166064860152516084850152915160a4840152935190931660c48201527361b3f2011a92d183c7dbadbda940a7555ccf92279063b2e70c2f9060e4016020604051808303816000875af1158015611437573d6000803e3d6000fd5b505050506040513d601f19601f8201168201806040525081019061145b9190611c98565b93506000612710600154866114709190611d23565b61147a9190611d3a565b90506114868186611d5c565b98975050505050505050565b61149a6114d0565b6001600160a01b0381166114c457604051631e4fbdf760e01b815260006004820152602401610425565b6114cd8161162a565b50565b6000546001600160a01b03163314610ff75760405163118cdaa760e01b8152336004820152602401610425565b6040516001600160a01b0384811660248301528381166044830152606482018390526115649186918216906323b872dd906084015b604051602081830303815290604052915060e01b6020820180516001600160e01b03838183161783525050505061167a565b50505050565b604051636eb1769f60e11b81523060048201526001600160a01b0383811660248301526000919085169063dd62ed3e90604401602060405180830381865afa1580156115ba573d6000803e3d6000fd5b505050506040513d601f19601f820116820180604052508101906115de9190611c98565b905061156484846115ef8585611beb565b6116eb565b6040516001600160a01b0383811660248301526044820183905261162591859182169063a9059cbb90606401611532565b505050565b600080546001600160a01b038381166001600160a01b0319831681178455604051919092169283917f8be0079c531659141344cd1fd0a4f28419497f9722a3daafe3b4186f6b6457e09190a35050565b600080602060008451602086016000885af18061169d576040513d6000823e3d81fd5b50506000513d915081156116b55780600114156116c2565b6001600160a01b0384163b155b1561156457604051635274afe760e01b81526001600160a01b0385166004820152602401610425565b604080516001600160a01b038416602482015260448082018490528251808303909101815260649091019091526020810180516001600160e01b031663095ea7b360e01b17905261173c848261177b565b611564576040516001600160a01b0384811660248301526000604483015261177191869182169063095ea7b390606401611532565b611564848261167a565b6000806000806020600086516020880160008a5af192503d915060005190508280156117c0575081156117b157806001146117c0565b6000866001600160a01b03163b115b9695505050505050565b6000602082840312156117dc57600080fd5b5035919050565b6001600160a01b03811681146114cd57600080fd5b6000806000806080858703121561180e57600080fd5b8435611819816117e3565b93506020850135611829816117e3565b93969395505050506040820135916060013590565b6000806040838503121561185157600080fd5b823561185c816117e3565b9150602083013561186c816117e3565b809150509250929050565b80516001600160a01b03908116835260208083015182169084015260408083015162ffffff169084015260608083015160020b9084015260809182015116910152565b60a0810161079f8284611877565b600080600080600060a086880312156118e057600080fd5b85356118eb816117e3565b945060208601356118fb816117e3565b935060408601359250606086013591506080860135611919816117e3565b809150509295509295909350565b803562ffffff8116811461193a57600080fd5b919050565b6000806000806080858703121561195557600080fd5b8435611960816117e3565b93506020850135611970816117e3565b925061197e60408601611927565b9150606085013561198e816117e3565b939692955090935050565b8060020b81146114cd57600080fd5b600080600080600060a086880312156119c057600080fd5b85356119cb816117e3565b945060208601356119db816117e3565b93506119e960408701611927565b925060608601356119f981611999565b91506080860135611919816117e3565b60008060408385031215611a1c57600080fd5b8235611a27816117e3565b946020939093013593505050565b600080600060608486031215611a4a57600080fd5b8335611a55816117e3565b92506020840135611a65816117e3565b929592945050506040919091013590565b600060208284031215611a8857600080fd5b8135611a93816117e3565b9392505050565b602080825260139082015272141bdbdb081b9bdd0818dbdb999a59dd5c9959606a1b604082015260600190565b60005b83811015611ae2578181015183820152602001611aca565b50506000910152565b60008151808452611b03816020860160208601611ac7565b601f01601f19169290920160200192915050565b611b218185611877565b60e060a0820152611b3660e082018451611877565b6020830151151561018082015260408301516101a082015260608301516001600160a01b03166101c082015260808301516101206101e0830152600090611b81610200840182611aeb565b905082810360c08401526117c08185611aeb565b60008060408385031215611ba857600080fd5b505080516020909101519092909150565b634e487b7160e01b600052601160045260246000fd5b6000600160ff1b8201611be457611be4611bb9565b5060000390565b8082018082111561079f5761079f611bb9565b60008451611c10818460208901611ac7565b845190830190611c24818360208901611ac7565b8451910190611c37818360208801611ac7565b0195945050505050565b6000610120611c508389611877565b86151560a084015260c083018690526001600160a01b03851660e0840152610100830181905261148681840185611aeb565b634e487b7160e01b600052603260045260246000fd5b600060208284031215611caa57600080fd5b5051919050565b604081526000611cc46040830185611aeb565b6020838203818501528185518084528284019150828160051b85010183880160005b83811015611d1457601f19878403018552611d02838351611aeb565b94860194925090850190600101611ce6565b50909998505050505050505050565b808202811582820484141761079f5761079f611bb9565b600082611d5757634e487b7160e01b600052601260045260246000fd5b500490565b8181038181111561079f5761079f611bb9565b611d798185611877565b6001600160a01b03831660a082015260e060c08201819052600090611da090830184611aeb565b95945050505050565b600060208284031215611dbb57600080fd5b8151611a938161199956fea2646970667358221220173594adcbf1b8b8d529d71176bee003366ca3eafa680964824ed860e630bc4364736f6c63430008160033",
  "devdoc": {
    "details": "Integrates with deployed Uniswap V4 PoolManager and Universal Router",
    "errors": {
      "OwnableInvalidOwner(address)": [
        {
          "details": "The owner is not a valid owner account. (eg. `address(0)`)"
        }
      ],
      "OwnableUnauthorizedAccount(address)": [
        {
          "details": "The caller account is not authorized to perform an operation."
        }
      ],
      "SafeERC20FailedOperation(address)": [
        {
          "details": "An operation with an ERC-20 token failed."
        }
      ]
    },
    "kind": "dev",
    "methods": {
      "configurePool(address,address,uint24,int24,address)": {
        "params": {
          "fee": "Pool fee tier (500 = 0.05%, 3000 = 0.3%, 10000 = 1%)",
          "hooks": "Hook contract address (use address(0) for no hooks)",
          "tickSpacing": "Pool tick spacing",
          "tokenA": "First token address",
          "tokenB": "Second token address  "
        }
      },
      "directPoolSwap(address,address,uint256,uint256)": {
        "params": {
          "amountIn": "Amount to swap",
          "minAmountOut": "Minimum output",
          "tokenIn": "Input token",
          "tokenOut": "Output token"
        },
        "returns": {
          "amountOut": "Output amount"
        }
      },
      "getPool(address,address)": {
        "params": {
          "tokenA": "First token",
          "tokenB": "Second token"
        },
        "returns": {
          "_0": "poolKey The pool configuration"
        }
      },
      "getQuote(address,address,uint256)": {
        "params": {
          "amountIn": "Input amount",
          "tokenIn": "Input token",
          "tokenOut": "Output token"
        },
        "returns": {
          "amountOut": "Estimated output amount"
        }
      },
      "hasPool(address,address)": {
        "params": {
          "tokenA": "First token",
          "tokenB": "Second token"
        },
        "returns": {
          "_0": "bool True if pool exists"
        }
      },
      "initializePool(address,address,uint24,uint160)": {
        "params": {
          "fee": "Fee tier",
          "sqrtPriceX96": "Initial sqrt price",
          "tokenA": "First token",
          "tokenB": "Second token"
        }
      },
      "owner()": {
        "details": "Returns the address of the current owner."
      },
      "recoverToken(address,uint256)": {
        "params": {
          "amount": "Amount to recover",
          "token": "Token address"
        }
      },
      "renounceOwnership()": {
        "details": "Leaves the contract without owner. It will not be possible to call `onlyOwner` functions. Can only be called by the current owner. NOTE: Renouncing ownership will leave the contract without an owner, thereby disabling any functionality that is only available to the owner."
      },
      "setSlippageTolerance(uint256)": {
        "params": {
          "_slippageTolerance": "New slippage tolerance in basis points"
        }
      },
      "swapExactInputSingle(address,address,uint256,uint256,address)": {
        "params": {
          "amountIn": "Input token amount",
          "amountOutMinimum": "Minimum output amount",
          "recipient": "Recipient address",
          "tokenIn": "Input token address",
          "tokenOut": "Output token address"
        },
        "returns": {
          "amountOut": "The actual output amount"
        }
      },
      "transferOwnership(address)": {
        "details": "Transfers ownership of the contract to a new account (`newOwner`). Can only be called by the current owner."
      }
    },
    "title": "UniswapV4SwapRouter",
    "version": 1
  },
  "userdoc": {
    "kind": "user",
    "methods": {
      "configurePool(address,address,uint24,int24,address)": {
        "notice": "Configure a pool for swapping"
      },
      "directPoolSwap(address,address,uint256,uint256)": {
        "notice": "Direct swap through PoolManager for advanced users"
      },
      "getPool(address,address)": {
        "notice": "Get pool details"
      },
      "getQuote(address,address,uint256)": {
        "notice": "Get quote for swap through Quoter contract"
      },
      "hasPool(address,address)": {
        "notice": "Check if a pool is configured"
      },
      "initializePool(address,address,uint24,uint160)": {
        "notice": "Initialize a pool with starting price"
      },
      "recoverToken(address,uint256)": {
        "notice": "Emergency token recovery"
      },
      "setSlippageTolerance(uint256)": {
        "notice": "Update slippage tolerance"
      },
      "swapExactInputSingle(address,address,uint256,uint256,address)": {
        "notice": "Execute a token swap with exact input through Universal Router"
      }
    },
    "notice": "Production-ready token swap router using Uniswap V4 on Sepolia",
    "version": 1
  },
  "storageLayout": {
    "storage": [
      {
        "astId": 8,
        "contract": "contracts/UniswapV4SwapRouter.sol:UniswapV4SwapRouter",
        "label": "_owner",
        "offset": 0,
        "slot": "0",
        "type": "t_address"
      },
      {
        "astId": 988,
        "contract": "contracts/UniswapV4SwapRouter.sol:UniswapV4SwapRouter",
        "label": "slippageTolerance",
        "offset": 0,
        "slot": "1",
        "type": "t_uint256"
      },
      {
        "astId": 996,
        "contract": "contracts/UniswapV4SwapRouter.sol:UniswapV4SwapRouter",
        "label": "poolKeys",
        "offset": 0,
        "slot": "2",
        "type": "t_mapping(t_bytes32,t_struct(PoolKey)870_storage)"
      },
      {
        "astId": 1002,
        "contract": "contracts/UniswapV4SwapRouter.sol:UniswapV4SwapRouter",
        "label": "poolKeyIds",
        "offset": 0,
        "slot": "3",
        "type": "t_mapping(t_address,t_mapping(t_address,t_bytes32))"
      }
    ],
    "types": {
      "t_address": {
        "encoding": "inplace",
        "label": "address",
        "numberOfBytes": "20"
      },
      "t_bytes32": {
        "encoding": "inplace",
        "label": "bytes32",
        "numberOfBytes": "32"
      },
      "t_int24": {
        "encoding": "inplace",
        "label": "int24",
        "numberOfBytes": "3"
      },
      "t_mapping(t_address,t_bytes32)": {
        "encoding": "mapping",
        "key": "t_address",
        "label": "mapping(address => bytes32)",
        "numberOfBytes": "32",
        "value": "t_bytes32"
      },
      "t_mapping(t_address,t_mapping(t_address,t_bytes32))": {
        "encoding": "mapping",
        "key": "t_address",
        "label": "mapping(address => mapping(address => bytes32))",
        "numberOfBytes": "32",
        "value": "t_mapping(t_address,t_bytes32)"
      },
      "t_mapping(t_bytes32,t_struct(PoolKey)870_storage)": {
        "encoding": "mapping",
        "key": "t_bytes32",
        "label": "mapping(bytes32 => struct IPoolManager.PoolKey)",
        "numberOfBytes": "32",
        "value": "t_struct(PoolKey)870_storage"
      },
      "t_struct(PoolKey)870_storage": {
        "encoding": "inplace",
        "label": "struct IPoolManager.PoolKey",
        "members": [
          {
            "astId": 861,
            "contract": "contracts/UniswapV4SwapRouter.sol:UniswapV4SwapRouter",
            "label": "currency0",
            "offset": 0,
            "slot": "0",
            "type": "t_address"
          },
          {
            "astId": 863,
            "contract": "contracts/UniswapV4SwapRouter.sol:UniswapV4SwapRouter",
            "label": "currency1",
            "offset": 0,
            "slot": "1",
            "type": "t_address"
          },
          {
            "astId": 865,
            "contract": "contracts/UniswapV4SwapRouter.sol:UniswapV4SwapRouter",
            "label": "fee",
            "offset": 20,
            "slot": "1",
            "type": "t_uint24"
          },
          {
            "astId": 867,
            "contract": "contracts/UniswapV4SwapRouter.sol:UniswapV4SwapRouter",
            "label": "tickSpacing",
            "offset": 23,
            "slot": "1",
            "type": "t_int24"
          },
          {
            "astId": 869,
            "contract": "contracts/UniswapV4SwapRouter.sol:UniswapV4SwapRouter",
            "label": "hooks",
            "offset": 0,
            "slot": "2",
            "type": "t_address"
          }
        ],
        "numberOfBytes": "96"
      },
      "t_uint24": {
        "encoding": "inplace",
        "label": "uint24",
        "numberOfBytes": "3"
      },
      "t_uint256": {
        "encoding": "inplace",
        "label": "uint256",
        "numberOfBytes": "32"
      }
    }
  }
}